{
    "contractName": "SafexMain",
    "abi": [
        {
            "inputs": [
                {
                    "internalType": "contract IArbitrator",
                    "name": "_arbitrator",
                    "type": "address"
                }
            ],
            "stateMutability": "nonpayable",
            "type": "constructor"
        },
        {
            "anonymous": false,
            "inputs": [
                {
                    "indexed": true,
                    "internalType": "address",
                    "name": "claimCreatedBy",
                    "type": "address"
                },
                {
                    "indexed": true,
                    "internalType": "string",
                    "name": "safeId",
                    "type": "string"
                },
                {
                    "indexed": true,
                    "internalType": "uint256",
                    "name": "disputeId",
                    "type": "uint256"
                }
            ],
            "name": "CreateClaim",
            "type": "event"
        },
        {
            "anonymous": false,
            "inputs": [
                {
                    "indexed": true,
                    "internalType": "address",
                    "name": "safeCreatedBy",
                    "type": "address"
                },
                {
                    "indexed": true,
                    "internalType": "address",
                    "name": "safeInheritor",
                    "type": "address"
                },
                {
                    "indexed": true,
                    "internalType": "uint256",
                    "name": "metaEvidenceId",
                    "type": "uint256"
                }
            ],
            "name": "CreateSafe",
            "type": "event"
        },
        {
            "anonymous": false,
            "inputs": [
                {
                    "indexed": true,
                    "internalType": "contract IArbitrator",
                    "name": "_arbitrator",
                    "type": "address"
                },
                {
                    "indexed": true,
                    "internalType": "uint256",
                    "name": "_disputeID",
                    "type": "uint256"
                },
                {
                    "indexed": false,
                    "internalType": "uint256",
                    "name": "_metaEvidenceID",
                    "type": "uint256"
                },
                {
                    "indexed": false,
                    "internalType": "uint256",
                    "name": "_evidenceGroupID",
                    "type": "uint256"
                }
            ],
            "name": "Dispute",
            "type": "event"
        },
        {
            "anonymous": false,
            "inputs": [
                {
                    "indexed": true,
                    "internalType": "contract IArbitrator",
                    "name": "_arbitrator",
                    "type": "address"
                },
                {
                    "indexed": true,
                    "internalType": "uint256",
                    "name": "_evidenceGroupID",
                    "type": "uint256"
                },
                {
                    "indexed": true,
                    "internalType": "address",
                    "name": "_party",
                    "type": "address"
                },
                {
                    "indexed": false,
                    "internalType": "string",
                    "name": "_evidence",
                    "type": "string"
                }
            ],
            "name": "Evidence",
            "type": "event"
        },
        {
            "anonymous": false,
            "inputs": [
                {
                    "indexed": true,
                    "internalType": "uint256",
                    "name": "_metaEvidenceID",
                    "type": "uint256"
                },
                {
                    "indexed": false,
                    "internalType": "string",
                    "name": "_evidence",
                    "type": "string"
                }
            ],
            "name": "MetaEvidence",
            "type": "event"
        },
        {
            "anonymous": false,
            "inputs": [
                {
                    "indexed": true,
                    "internalType": "contract IArbitrator",
                    "name": "_arbitrator",
                    "type": "address"
                },
                {
                    "indexed": true,
                    "internalType": "uint256",
                    "name": "_disputeID",
                    "type": "uint256"
                },
                {
                    "indexed": false,
                    "internalType": "uint256",
                    "name": "_ruling",
                    "type": "uint256"
                }
            ],
            "name": "Ruling",
            "type": "event"
        },
        {
            "inputs": [],
            "name": "arbitrator",
            "outputs": [
                {
                    "internalType": "contract IArbitrator",
                    "name": "",
                    "type": "address"
                }
            ],
            "stateMutability": "view",
            "type": "function"
        },
        {
            "inputs": [
                {
                    "internalType": "uint256",
                    "name": "",
                    "type": "uint256"
                }
            ],
            "name": "claims",
            "outputs": [
                {
                    "internalType": "string",
                    "name": "safeId",
                    "type": "string"
                },
                {
                    "internalType": "uint256",
                    "name": "disputeId",
                    "type": "uint256"
                },
                {
                    "internalType": "address",
                    "name": "claimedBy",
                    "type": "address"
                },
                {
                    "internalType": "uint256",
                    "name": "metaEvidenceId",
                    "type": "uint256"
                },
                {
                    "internalType": "uint256",
                    "name": "evidenceGroupId",
                    "type": "uint256"
                },
                {
                    "internalType": "enum SafexMain.ClaimStatus",
                    "name": "status",
                    "type": "uint8"
                },
                {
                    "internalType": "string",
                    "name": "result",
                    "type": "string"
                }
            ],
            "stateMutability": "view",
            "type": "function"
        },
        {
            "inputs": [],
            "name": "claimsCount",
            "outputs": [
                {
                    "internalType": "uint256",
                    "name": "",
                    "type": "uint256"
                }
            ],
            "stateMutability": "view",
            "type": "function"
        },
        {
            "inputs": [
                {
                    "internalType": "string",
                    "name": "_safeId",
                    "type": "string"
                },
                {
                    "internalType": "string",
                    "name": "_evidence",
                    "type": "string"
                }
            ],
            "name": "createClaim",
            "outputs": [],
            "stateMutability": "payable",
            "type": "function"
        },
        {
            "inputs": [
                {
                    "internalType": "address",
                    "name": "_inheritor",
                    "type": "address"
                },
                {
                    "internalType": "string",
                    "name": "safeID",
                    "type": "string"
                },
                {
                    "internalType": "string",
                    "name": "_metaEvidence",
                    "type": "string"
                }
            ],
            "name": "createSafe",
            "outputs": [],
            "stateMutability": "payable",
            "type": "function"
        },
        {
            "inputs": [
                {
                    "internalType": "string",
                    "name": "_safeId",
                    "type": "string"
                }
            ],
            "name": "depositSafeFunds",
            "outputs": [],
            "stateMutability": "payable",
            "type": "function"
        },
        {
            "inputs": [],
            "name": "evidenceGroupID",
            "outputs": [
                {
                    "internalType": "uint256",
                    "name": "",
                    "type": "uint256"
                }
            ],
            "stateMutability": "view",
            "type": "function"
        },
        {
            "inputs": [
                {
                    "internalType": "bytes32",
                    "name": "_messageHash",
                    "type": "bytes32"
                }
            ],
            "name": "getEthSignedMessageHash",
            "outputs": [
                {
                    "internalType": "bytes32",
                    "name": "",
                    "type": "bytes32"
                }
            ],
            "stateMutability": "pure",
            "type": "function"
        },
        {
            "inputs": [
                {
                    "internalType": "string",
                    "name": "_message",
                    "type": "string"
                }
            ],
            "name": "getMessageHash",
            "outputs": [
                {
                    "internalType": "bytes32",
                    "name": "",
                    "type": "bytes32"
                }
            ],
            "stateMutability": "pure",
            "type": "function"
        },
        {
            "inputs": [
                {
                    "internalType": "uint256",
                    "name": "_claimId",
                    "type": "uint256"
                }
            ],
            "name": "getSafeStage",
            "outputs": [
                {
                    "internalType": "enum SafexMain.ClaimStatus",
                    "name": "",
                    "type": "uint8"
                }
            ],
            "stateMutability": "view",
            "type": "function"
        },
        {
            "inputs": [],
            "name": "getSafexMainContractBalance",
            "outputs": [
                {
                    "internalType": "uint256",
                    "name": "balance",
                    "type": "uint256"
                }
            ],
            "stateMutability": "view",
            "type": "function"
        },
        {
            "inputs": [],
            "name": "getTotalClaimsAllowed",
            "outputs": [
                {
                    "internalType": "uint256",
                    "name": "totalClaimsAllowed",
                    "type": "uint256"
                }
            ],
            "stateMutability": "view",
            "type": "function"
        },
        {
            "inputs": [
                {
                    "internalType": "string",
                    "name": "_message",
                    "type": "string"
                },
                {
                    "internalType": "bytes",
                    "name": "_signature",
                    "type": "bytes"
                },
                {
                    "internalType": "string[]",
                    "name": "secrets",
                    "type": "string[]"
                },
                {
                    "internalType": "string",
                    "name": "_safeId",
                    "type": "string"
                }
            ],
            "name": "guardianProof",
            "outputs": [
                {
                    "internalType": "address",
                    "name": "",
                    "type": "address"
                }
            ],
            "stateMutability": "pure",
            "type": "function"
        },
        {
            "inputs": [],
            "name": "metaEvidenceID",
            "outputs": [
                {
                    "internalType": "uint256",
                    "name": "",
                    "type": "uint256"
                }
            ],
            "stateMutability": "view",
            "type": "function"
        },
        {
            "inputs": [
                {
                    "internalType": "string",
                    "name": "_safeId",
                    "type": "string"
                }
            ],
            "name": "recoverSafeFunds",
            "outputs": [],
            "stateMutability": "nonpayable",
            "type": "function"
        },
        {
            "inputs": [
                {
                    "internalType": "uint256",
                    "name": "_disputeID",
                    "type": "uint256"
                },
                {
                    "internalType": "uint256",
                    "name": "_ruling",
                    "type": "uint256"
                }
            ],
            "name": "rule",
            "outputs": [],
            "stateMutability": "nonpayable",
            "type": "function"
        },
        {
            "inputs": [
                {
                    "internalType": "string",
                    "name": "",
                    "type": "string"
                }
            ],
            "name": "safes",
            "outputs": [
                {
                    "internalType": "string",
                    "name": "safeId",
                    "type": "string"
                },
                {
                    "internalType": "address",
                    "name": "safeCreatedBy",
                    "type": "address"
                },
                {
                    "internalType": "address",
                    "name": "safeCurrentOwner",
                    "type": "address"
                },
                {
                    "internalType": "address",
                    "name": "safeInheritor",
                    "type": "address"
                },
                {
                    "internalType": "uint256",
                    "name": "metaEvidenceId",
                    "type": "uint256"
                },
                {
                    "internalType": "uint256",
                    "name": "claimsCount",
                    "type": "uint256"
                },
                {
                    "internalType": "uint256",
                    "name": "safeFunds",
                    "type": "uint256"
                }
            ],
            "stateMutability": "view",
            "type": "function"
        },
        {
            "inputs": [],
            "name": "safesCount",
            "outputs": [
                {
                    "internalType": "uint256",
                    "name": "",
                    "type": "uint256"
                }
            ],
            "stateMutability": "view",
            "type": "function"
        },
        {
            "inputs": [],
            "name": "safexMainAdmin",
            "outputs": [
                {
                    "internalType": "address",
                    "name": "",
                    "type": "address"
                }
            ],
            "stateMutability": "view",
            "type": "function"
        },
        {
            "inputs": [
                {
                    "internalType": "uint256",
                    "name": "_claimsAllowed",
                    "type": "uint256"
                }
            ],
            "name": "setTotalClaimsAllowed",
            "outputs": [],
            "stateMutability": "nonpayable",
            "type": "function"
        },
        {
            "inputs": [
                {
                    "internalType": "uint256",
                    "name": "_disputeID",
                    "type": "uint256"
                },
                {
                    "internalType": "string",
                    "name": "_evidence",
                    "type": "string"
                }
            ],
            "name": "submitEvidence",
            "outputs": [],
            "stateMutability": "nonpayable",
            "type": "function"
        },
        {
            "stateMutability": "payable",
            "type": "receive"
        }
    ],
    "bytecode": "6080604052600060025560006003556000600455600060055560026008553480156200002a57600080fd5b5060405162002e8e38038062002e8e8339810160408190526200004d916200007c565b600080546001600160a01b039092166001600160a01b03199283161790556001805490911633179055620000ae565b6000602082840312156200008f57600080fd5b81516001600160a01b0381168114620000a757600080fd5b9392505050565b612dd080620000be6000396000f3fe60806040526004361061012e5760003560e01c8063b24355b5116100ab578063c307aba61161006f578063c307aba61461033a578063c464db311461034d578063d8c1b33714610360578063f32f682414610393578063fa540801146103b3578063fc11c4a2146103d357600080fd5b8063b24355b5146102af578063b446f3b2146102cf578063bbd245ea146102ef578063bcdab19914610305578063bdc3c8c71461031a57600080fd5b80636cc6cde1116100f25780636cc6cde11461021357806389593471146102335780638e7ffc6514610246578063a6a7f0eb1461025c578063a888c2cd1461027c57600080fd5b80632a1a08cf1461013a578063311a6c561461017757806349bbaa74146101995780635d561c08146101d9578063689a118b146101fd57600080fd5b3661013557005b600080fd5b34801561014657600080fd5b5061015a610155366004612938565b6103e6565b6040516001600160a01b0390911681526020015b60405180910390f35b34801561018357600080fd5b50610197610192366004612abd565b6104de565b005b3480156101a557600080fd5b506101cc6101b43660046128ea565b60009081526007602052604090206005015460ff1690565b60405161016e9190612b49565b3480156101e557600080fd5b506101ef60055481565b60405190815260200161016e565b34801561020957600080fd5b506101ef60045481565b34801561021f57600080fd5b5060005461015a906001600160a01b031681565b34801561023f57600080fd5b50476101ef565b34801561025257600080fd5b506101ef60025481565b34801561026857600080fd5b50610197610277366004612a7e565b6108be565b34801561028857600080fd5b5061029c6102973660046128ea565b610d30565b60405161016e9796959493929190612bda565b3480156102bb57600080fd5b506101976102ca3660046128ea565b610e8f565b3480156102db57600080fd5b506101ef6102ea366004612903565b610f07565b3480156102fb57600080fd5b506101ef60035481565b34801561031157600080fd5b506008546101ef565b34801561032657600080fd5b50610197610335366004612903565b610f37565b610197610348366004612865565b61134b565b61019761035b366004612903565b6118d5565b34801561036c57600080fd5b5061038061037b366004612903565b611b19565b60405161016e9796959493929190612b8c565b34801561039f57600080fd5b5060015461015a906001600160a01b031681565b3480156103bf57600080fd5b506101ef6103ce3660046128ea565b611bf7565b6101976103e13660046129fc565b611c32565b600080600080865160411461040157600093505050506104d6565b50505060208401516040850151606086015160001a601b81101561042d5761042a601b82612cb5565b90505b8060ff16601b1415801561044557508060ff16601c14155b1561045657600093505050506104d6565b600061046189610f07565b9050600061046e82611bf7565b60408051600081526020810180835283905260ff861691810191909152606081018790526080810186905290915060019060a0016020604051602081039080840390855afa1580156104c4573d6000803e3d6000fd5b50505060206040510351955050505050505b949350505050565b6000546001600160a01b0316331461053d5760405162461bcd60e51b815260206004820181905260248201527f4f6e6c792061726269747261746f722063616e2065786563757465207468697360448201526064015b60405180910390fd5b8060028111156105875760405162461bcd60e51b815260206004820152601560248201527452756c696e67206f7574206f6620626f756e64732160581b6044820152606401610534565b600083815260076020526040808220815160e081019092528054829082906105ae90612d1d565b80601f01602080910402602001604051908101604052809291908181526020018280546105da90612d1d565b80156106275780601f106105fc57610100808354040283529160200191610627565b820191906000526020600020905b81548152906001019060200180831161060a57829003601f168201915b50505091835250506001820154602082015260028201546001600160a01b03166040820152600380830154606083015260048301546080830152600583015460a09092019160ff169081111561067f5761067f612d6e565b600381111561069057610690612d6e565b81526020016006820180546106a490612d1d565b80601f01602080910402602001604051908101604052809291908181526020018280546106d090612d1d565b801561071d5780601f106106f25761010080835404028352916020019161071d565b820191906000526020600020905b81548152906001019060200180831161070057829003601f168201915b5050505050815250509050826001141561075f57600160a082015260408051808201909152600681526514185cdcd95960d21b602082015260c08201526107c3565b826002141561079657600260a082015260408051808201909152600681526511985a5b195960d21b602082015260c08201526107c3565b826107c357600360a08201819052604080518082019091529081526252544160e81b602082015260c08201525b60008481526007602090815260409091208251805184936107e8928492910190612660565b506020820151816001015560408201518160020160006101000a8154816001600160a01b0302191690836001600160a01b03160217905550606082015181600301556080820151816004015560a08201518160050160006101000a81548160ff0219169083600381111561085e5761085e612d6e565b021790555060c0820151805161087e916006840191602090910190612660565b505060405184815285915033907f394027a5fa6e098a1191094d1719d6929b9abc535fcc0c8f448d6a4e756222769060200160405180910390a350505050565b8282826003548311156109135760405162461bcd60e51b815260206004820152601f60248201527f436c61696d206f72204469737075746520646f6573206e6f74206578697374006044820152606401610534565b600083815260076020526040808220815160e0810190925280548290829061093a90612d1d565b80601f016020809104026020016040519081016040528092919081815260200182805461096690612d1d565b80156109b35780601f10610988576101008083540402835291602001916109b3565b820191906000526020600020905b81548152906001019060200180831161099657829003601f168201915b50505091835250506001820154602082015260028201546001600160a01b03166040820152600380830154606083015260048301546080830152600583015460a09092019160ff1690811115610a0b57610a0b612d6e565b6003811115610a1c57610a1c612d6e565b8152602001600682018054610a3090612d1d565b80601f0160208091040260200160405190810160405280929190818152602001828054610a5c90612d1d565b8015610aa95780601f10610a7e57610100808354040283529160200191610aa9565b820191906000526020600020905b815481529060010190602001808311610a8c57829003601f168201915b505050505081525050905080604001516001600160a01b0316336001600160a01b031614610b335760405162461bcd60e51b815260206004820152603160248201527f4f6e6c792063726561746f72206f662074686520636c61696d2063616e207375604482015270626d6974207468652065766964656e636560781b6064820152608401610534565b600087815260076020526040808220815160e08101909252805482908290610b5a90612d1d565b80601f0160208091040260200160405190810160405280929190818152602001828054610b8690612d1d565b8015610bd35780601f10610ba857610100808354040283529160200191610bd3565b820191906000526020600020905b815481529060010190602001808311610bb657829003601f168201915b50505091835250506001820154602082015260028201546001600160a01b03166040820152600380830154606083015260048301546080830152600583015460a09092019160ff1690811115610c2b57610c2b612d6e565b6003811115610c3c57610c3c612d6e565b8152602001600682018054610c5090612d1d565b80601f0160208091040260200160405190810160405280929190818152602001828054610c7c90612d1d565b8015610cc95780601f10610c9e57610100808354040283529160200191610cc9565b820191906000526020600020905b815481529060010190602001808311610cac57829003601f168201915b50505091909252505050608081015160005460405192935033926001600160a01b03909116907fdccf2f8b2cc26eafcd61905cba744cff4b81d14740725f6376390dc6298a6a3c90610d1e908c908c90612b5d565b60405180910390a45050505050505050565b600760205260009081526040902080548190610d4b90612d1d565b80601f0160208091040260200160405190810160405280929190818152602001828054610d7790612d1d565b8015610dc45780601f10610d9957610100808354040283529160200191610dc4565b820191906000526020600020905b815481529060010190602001808311610da757829003601f168201915b5050505060018301546002840154600385015460048601546005870154600688018054979895976001600160a01b0390951696509294919360ff9091169290610e0c90612d1d565b80601f0160208091040260200160405190810160405280929190818152602001828054610e3890612d1d565b8015610e855780601f10610e5a57610100808354040283529160200191610e85565b820191906000526020600020905b815481529060010190602001808311610e6857829003601f168201915b5050505050905087565b6001546001600160a01b03163314610f025760405162461bcd60e51b815260206004820152603060248201527f4f6e6c792053616665784d61696e20636f6e747261637427732061646d696e2060448201526f63616e2065786563757465207468697360801b6064820152608401610534565b600855565b600081604051602001610f1a9190612b2d565b604051602081830303815290604052805190602001209050919050565b806000600682604051610f4a9190612b2d565b90815260200160405180910390206040518060e0016040529081600082018054610f7390612d1d565b80601f0160208091040260200160405190810160405280929190818152602001828054610f9f90612d1d565b8015610fec5780601f10610fc157610100808354040283529160200191610fec565b820191906000526020600020905b815481529060010190602001808311610fcf57829003601f168201915b505050918352505060018201546001600160a01b0390811660208301526002830154811660408084019190915260038401548216606084015260048401546080840152600584015460a084015260069093015460c090920191909152908201519192501633146110b65760405162461bcd60e51b815260206004820152602f60248201527f4f6e6c792073616665206f776e65722063616e207265636f766572207468652060448201526e6465706f7369742062616c616e636560881b6064820152608401610534565b60c08101516111075760405162461bcd60e51b815260206004820152601e60248201527f4e6f2066756e64732072656d61696e696e6720696e20746865207361666500006044820152606401610534565b60006006846040516111199190612b2d565b90815260200160405180910390206040518060e001604052908160008201805461114290612d1d565b80601f016020809104026020016040519081016040528092919081815260200182805461116e90612d1d565b80156111bb5780601f10611190576101008083540402835291602001916111bb565b820191906000526020600020905b81548152906001019060200180831161119e57829003601f168201915b505050918352505060018201546001600160a01b039081166020830152600283015481166040808401919091526003840154909116606083015260048301546080830152600583015460a083015260069283015460c09283015290830180516000909152905192935091839190611233908890612b2d565b9081526020016040518091039020600082015181600001908051906020019061125d929190612660565b5060208201516001820180546001600160a01b03199081166001600160a01b03938416179091556040808501516002850180548416918516919091179055606085015160038501805490931693169290921790556080830151600483015560a0830151600583015560c09092015160069091015551339060009081908390859060006040518083038185875af1925050503d806000811461131a576040519150601f19603f3d011682016040523d82523d6000602084013e61131f565b606091505b5091509150816113415760405162461bcd60e51b815260040161053490612c3e565b5050505050505050565b60005460405163f7434ea960e01b81528591849184916001600160a01b03169063f7434ea99061138990600401602080825260009082015260400190565b60206040518083038186803b1580156113a157600080fd5b505afa1580156113b5573d6000803e3d6000fd5b505050506040513d601f19601f820116820180604052508101906113d99190612a65565b3410156114215760405162461bcd60e51b8152602060048201526016602482015275125b9859195c5d585d1948199959481c185e5b595b9d60521b6044820152606401610534565b806114835760405162461bcd60e51b815260206004820152602c60248201527f53686f756c642070726f76696465206d65746145766964656e636520746f206360448201526b72656174652061207361666560a01b6064820152608401610534565b6001600160a01b0383166114ea5760405162461bcd60e51b815260206004820152602860248201527f53686f756c642070726f7669646520616e20696e68657269746f7220666f7220604482015267746865207361666560c01b6064820152608401610534565b336001600160a01b03841614156115605760405162461bcd60e51b815260206004820152603460248201527f536166652063726561746f722073686f756c64206e6f742062652074686520696044820152736e68657269746f72206f6620746865207361666560601b6064820152608401610534565b6001600460008282546115739190612c9d565b92505081905550600060068760405161158c9190612b2d565b90815260200160405180910390206040518060e00160405290816000820180546115b590612d1d565b80601f01602080910402602001604051908101604052809291908181526020018280546115e190612d1d565b801561162e5780601f106116035761010080835404028352916020019161162e565b820191906000526020600020905b81548152906001019060200180831161161157829003601f168201915b505050505081526020016001820160009054906101000a90046001600160a01b03166001600160a01b03166001600160a01b031681526020016002820160009054906101000a90046001600160a01b03166001600160a01b03166001600160a01b031681526020016003820160009054906101000a90046001600160a01b03166001600160a01b03166001600160a01b03168152602001600482015481526020016005820154815260200160068201548152505090506040518060e00160405280888152602001336001600160a01b03168152602001336001600160a01b03168152602001896001600160a01b03168152602001600454815260200160008152602001348152509050806006886040516117489190612b2d565b90815260200160405180910390206000820151816000019080519060200190611772929190612660565b5060208201516001820180546001600160a01b03199081166001600160a01b03938416179091556040808501516002850180548416918516919091179055606085015160038501805490931693169290921790556080830151600483015560a0830151600583015560c0909201516006909101555160009081903090349060006040518083038185875af1925050503d806000811461182d576040519150601f19603f3d011682016040523d82523d6000602084013e611832565b606091505b5091509150816118545760405162461bcd60e51b815260040161053490612c3e565b6004547f61606860eb6c87306811e2695215385101daab53bd6ab4e9f9049aead9363c7d8989604051611888929190612b5d565b60405180910390a26004546040516001600160a01b038c169033907f938ffcdd011d090a0cbd1dd7b490d713cf8c8fdb2d0d53a5615a37c464fdec2790600090a450505050505050505050565b60006006826040516118e79190612b2d565b90815260200160405180910390206040518060e001604052908160008201805461191090612d1d565b80601f016020809104026020016040519081016040528092919081815260200182805461193c90612d1d565b80156119895780601f1061195e57610100808354040283529160200191611989565b820191906000526020600020905b81548152906001019060200180831161196c57829003601f168201915b505050918352505060018201546001600160a01b039081166020830152600283015481166040830152600383015416606082015260048201546080820152600582015460a082015260069091015460c0918201528101805191925034916119f1908390612c9d565b9052506040518190600690611a07908590612b2d565b90815260200160405180910390206000820151816000019080519060200190611a31929190612660565b5060208201516001820180546001600160a01b03199081166001600160a01b03938416179091556040808501516002850180548416918516919091179055606085015160038501805490931693169290921790556080830151600483015560a0830151600583015560c0909201516006909101555160009081903090349060006040518083038185875af1925050503d8060008114611aec576040519150601f19603f3d011682016040523d82523d6000602084013e611af1565b606091505b509150915081611b135760405162461bcd60e51b815260040161053490612c3e565b50505050565b8051602081830181018051600682529282019190930120915280548190611b3f90612d1d565b80601f0160208091040260200160405190810160405280929190818152602001828054611b6b90612d1d565b8015611bb85780601f10611b8d57610100808354040283529160200191611bb8565b820191906000526020600020905b815481529060010190602001808311611b9b57829003601f168201915b5050506001840154600285015460038601546004870154600588015460069098015496976001600160a01b039485169793851696509190931693509087565b6040517f19457468657265756d205369676e6564204d6573736167653a0a3332000000006020820152603c8101829052600090605c01610f1a565b8282826000600684604051611c479190612b2d565b90815260200160405180910390206040518060e0016040529081600082018054611c7090612d1d565b80601f0160208091040260200160405190810160405280929190818152602001828054611c9c90612d1d565b8015611ce95780601f10611cbe57610100808354040283529160200191611ce9565b820191906000526020600020905b815481529060010190602001808311611ccc57829003601f168201915b505050918352505060018201546001600160a01b039081166020830152600283015481166040830152600383015416606082015260048201546080820152600582015460a08083019190915260069092015460c0909101526008549082015191925011611db75760405162461bcd60e51b815260206004820152603660248201527f546f74616c206e756d626572206f6620636c61696d73206f6e20612073616665604482015275081a185cc81c995858da1959081d1a19481b1a5b5a5d60521b6064820152608401610534565b80606001516001600160a01b0316336001600160a01b031614611e345760405162461bcd60e51b815260206004820152602f60248201527f4f6e6c7920696e68657269746f72206f662074686520736166652063616e206360448201526e72656174652074686520636c61696d60881b6064820152608401610534565b6000805460405163f7434ea960e01b81526020600482015260248101929092526001600160a01b03169063f7434ea99060440160206040518083038186803b158015611e7f57600080fd5b505afa158015611e93573d6000803e3d6000fd5b505050506040513d601f19601f82011682018060405250810190611eb79190612a65565b8160c001511015611f305760405162461bcd60e51b815260206004820152603960248201527f496e73756666696369656e742066756e647320696e207468652073616665207460448201527f6f2070617920746865206172626974726174696f6e20666565000000000000006064820152608401610534565b6000600688604051611f429190612b2d565b90815260200160405180910390206040518060e0016040529081600082018054611f6b90612d1d565b80601f0160208091040260200160405190810160405280929190818152602001828054611f9790612d1d565b8015611fe45780601f10611fb957610100808354040283529160200191611fe4565b820191906000526020600020905b815481529060010190602001808311611fc757829003601f168201915b505050918352505060018201546001600160a01b039081166020830152600283015481166040808401919091526003840154821660608401526004808501546080850152600585015460a085015260069094015460c09093019290925260008054925163f7434ea960e01b81529495509391169163c13517e191839163f7434ea99161207c9101602080825260009082015260400190565b60206040518083038186803b15801561209457600080fd5b505afa1580156120a8573d6000803e3d6000fd5b505050506040513d601f19601f820116820180604052508101906120cc9190612a65565b60026040518363ffffffff1660e01b81526004016120fb91815260406020820181905260009082015260600190565b6020604051808303818588803b15801561211457600080fd5b505af1158015612128573d6000803e3d6000fd5b50505050506040513d601f19601f8201168201806040525081019061214d9190612a65565b90506001600560008282546121629190612c9d565b9091555050600054608083015160055460405184936001600160a01b0316927f74baab670a4015ab2f1b467c5252a96141a2573f2908e58a92081e80d3cfde3d926121b592918252602082015260400190565b60405180910390a3600081815260076020526040808220815160e081019092528054829082906121e490612d1d565b80601f016020809104026020016040519081016040528092919081815260200182805461221090612d1d565b801561225d5780601f106122325761010080835404028352916020019161225d565b820191906000526020600020905b81548152906001019060200180831161224057829003601f168201915b50505091835250506001820154602082015260028201546001600160a01b03166040820152600380830154606083015260048301546080830152600583015460a09092019160ff16908111156122b5576122b5612d6e565b60038111156122c6576122c6612d6e565b81526020016006820180546122da90612d1d565b80601f016020809104026020016040519081016040528092919081815260200182805461230690612d1d565b80156123535780601f1061232857610100808354040283529160200191612353565b820191906000526020600020905b81548152906001019060200180831161233657829003601f168201915b50505050508152505090506040518060e001604052808b8152602001838152602001336001600160a01b03168152602001846080015181526020016005548152602001600060038111156123a9576123a9612d6e565b8152604080518082018252600681526541637469766560d01b602082810191909152928301526000858152600783522082518051939450849391926123f392849290910190612660565b506020820151816001015560408201518160020160006101000a8154816001600160a01b0302191690836001600160a01b03160217905550606082015181600301556080820151816004015560a08201518160050160006101000a81548160ff0219169083600381111561246957612469612d6e565b021790555060c08201518051612489916006840191602090910190612660565b509050506001600360008282546124a09190612c9d565b909155505060405182906124b5908c90612b2d565b6040519081900381209033907f9af1e60c83b00f3dfe783522a295fc904374fead538b4de090e95d8596d9837e90600090a460018360a0018181516124fa9190612c9d565b9052506000805460405163f7434ea960e01b81526020600482015260248101929092526001600160a01b03169063f7434ea99060440160206040518083038186803b15801561254857600080fd5b505afa15801561255c573d6000803e3d6000fd5b505050506040513d601f19601f820116820180604052508101906125809190612a65565b8360c0018181516125919190612cda565b90525060405183906006906125a7908d90612b2d565b908152602001604051809103902060008201518160000190805190602001906125d1929190612660565b5060208201516001820180546001600160a01b039283166001600160a01b031991821617909155604084015160028401805491841691831691909117905560608401516003840180549190931691161790556080820151600482015560a0820151600582015560c090910151600690910155871561265457612654828a8a6108be565b50505050505050505050565b82805461266c90612d1d565b90600052602060002090601f01602090048101928261268e57600085556126d4565b82601f106126a757805160ff19168380011785556126d4565b828001600101855582156126d4579182015b828111156126d45782518255916020019190600101906126b9565b506126e09291506126e4565b5090565b5b808211156126e057600081556001016126e5565b600067ffffffffffffffff83111561271357612713612d84565b612726601f8401601f1916602001612c6c565b905082815283838301111561273a57600080fd5b828260208301376000602084830101529392505050565b600082601f83011261276257600080fd5b8135602067ffffffffffffffff8083111561277f5761277f612d84565b8260051b61278e838201612c6c565b8481528381019087850183890186018a10156127a957600080fd5b60009350835b878110156127e6578135868111156127c5578586fd5b6127d38c89838e010161283e565b85525092860192908601906001016127af565b50909998505050505050505050565b60008083601f84011261280757600080fd5b50813567ffffffffffffffff81111561281f57600080fd5b60208301915083602082850101111561283757600080fd5b9250929050565b600082601f83011261284f57600080fd5b61285e838335602085016126f9565b9392505050565b6000806000806060858703121561287b57600080fd5b84356001600160a01b038116811461289257600080fd5b9350602085013567ffffffffffffffff808211156128af57600080fd5b6128bb8883890161283e565b945060408701359150808211156128d157600080fd5b506128de878288016127f5565b95989497509550505050565b6000602082840312156128fc57600080fd5b5035919050565b60006020828403121561291557600080fd5b813567ffffffffffffffff81111561292c57600080fd5b6104d68482850161283e565b6000806000806080858703121561294e57600080fd5b843567ffffffffffffffff8082111561296657600080fd5b6129728883890161283e565b9550602087013591508082111561298857600080fd5b818701915087601f83011261299c57600080fd5b6129ab888335602085016126f9565b945060408701359150808211156129c157600080fd5b6129cd88838901612751565b935060608701359150808211156129e357600080fd5b506129f08782880161283e565b91505092959194509250565b600080600060408486031215612a1157600080fd5b833567ffffffffffffffff80821115612a2957600080fd5b612a358783880161283e565b94506020860135915080821115612a4b57600080fd5b50612a58868287016127f5565b9497909650939450505050565b600060208284031215612a7757600080fd5b5051919050565b600080600060408486031215612a9357600080fd5b83359250602084013567ffffffffffffffff811115612ab157600080fd5b612a58868287016127f5565b60008060408385031215612ad057600080fd5b50508035926020909101359150565b60048110612afd57634e487b7160e01b600052602160045260246000fd5b9052565b60008151808452612b19816020860160208601612cf1565b601f01601f19169290920160200192915050565b60008251612b3f818460208701612cf1565b9190910192915050565b60208101612b578284612adf565b92915050565b60208152816020820152818360408301376000818301604090810191909152601f909201601f19160101919050565b60e081526000612b9f60e083018a612b01565b6001600160a01b039889166020840152968816604083015250939095166060840152608083019190915260a082015260c00191909152919050565b60e081526000612bed60e083018a612b01565b602083018990526001600160a01b03881660408401526060830187905260808301869052612c1e60a0840186612adf565b82810360c0840152612c308185612b01565b9a9950505050505050505050565b6020808252601490820152732330b4b632b2103a379039b2b7321022ba3432b960611b604082015260600190565b604051601f8201601f1916810167ffffffffffffffff81118282101715612c9557612c95612d84565b604052919050565b60008219821115612cb057612cb0612d58565b500190565b600060ff821660ff84168060ff03821115612cd257612cd2612d58565b019392505050565b600082821015612cec57612cec612d58565b500390565b60005b83811015612d0c578181015183820152602001612cf4565b83811115611b135750506000910152565b600181811c90821680612d3157607f821691505b60208210811415612d5257634e487b7160e01b600052602260045260246000fd5b50919050565b634e487b7160e01b600052601160045260246000fd5b634e487b7160e01b600052602160045260246000fd5b634e487b7160e01b600052604160045260246000fdfea26469706673582212201e6495e8328763d395769ea3071cac80299553dffcf87d9ebd80bc3a3c4cd83364736f6c63430008060033",
    "sourcePath": "/home/yathish/Desktop/consensolabs/safex/safient-claims/contracts/SafexMain.sol",
    "compiler": {
        "name": "solc",
        "version": "0.8.6+commit.11564f7e"
    },
    "functionHashes": {
        "arbitrator()": "6cc6cde1",
        "claims(uint256)": "a888c2cd",
        "claimsCount()": "bbd245ea",
        "createClaim(string,string)": "fc11c4a2",
        "createSafe(address,string,string)": "c307aba6",
        "depositSafeFunds(string)": "c464db31",
        "evidenceGroupID()": "5d561c08",
        "getEthSignedMessageHash(bytes32)": "fa540801",
        "getMessageHash(string)": "b446f3b2",
        "getSafeStage(uint256)": "49bbaa74",
        "getSafexMainContractBalance()": "89593471",
        "getTotalClaimsAllowed()": "bcdab199",
        "guardianProof(string,bytes,string[],string)": "2a1a08cf",
        "metaEvidenceID()": "689a118b",
        "recoverSafeFunds(string)": "bdc3c8c7",
        "rule(uint256,uint256)": "311a6c56",
        "safes(string)": "d8c1b337",
        "safesCount()": "8e7ffc65",
        "safexMainAdmin()": "f32f6824",
        "setTotalClaimsAllowed(uint256)": "b24355b5",
        "submitEvidence(uint256,string)": "a6a7f0eb"
    },
    "gasEstimates": {
        "creation": {
            "codeDepositCost": "2345600",
            "executionCost": "infinite",
            "totalCost": "infinite"
        },
        "external": {
            "arbitrator()": "2349",
            "claims(uint256)": "infinite",
            "claimsCount()": "2362",
            "createClaim(string,string)": "infinite",
            "createSafe(address,string,string)": "infinite",
            "depositSafeFunds(string)": "infinite",
            "evidenceGroupID()": "2385",
            "getEthSignedMessageHash(bytes32)": "566",
            "getMessageHash(string)": "infinite",
            "getSafeStage(uint256)": "2599",
            "getSafexMainContractBalance()": "239",
            "getTotalClaimsAllowed()": "2381",
            "guardianProof(string,bytes,string[],string)": "infinite",
            "metaEvidenceID()": "2407",
            "recoverSafeFunds(string)": "infinite",
            "rule(uint256,uint256)": "infinite",
            "safes(string)": "infinite",
            "safesCount()": "2362",
            "safexMainAdmin()": "2414",
            "setTotalClaimsAllowed(uint256)": "24487",
            "submitEvidence(uint256,string)": "infinite"
        }
    }
}