{
  "contractName": "SafexMain",
  "abi": [
    {
      "inputs": [
        {
          "internalType": "contract IArbitrator",
          "name": "_arbitrator",
          "type": "address"
        }
      ],
      "stateMutability": "nonpayable",
      "type": "constructor"
    },
    {
      "anonymous": false,
      "inputs": [
        {
          "indexed": true,
          "internalType": "address",
          "name": "claimCreatedBy",
          "type": "address"
        },
        {
          "indexed": true,
          "internalType": "uint256",
          "name": "planId",
          "type": "uint256"
        },
        {
          "indexed": true,
          "internalType": "uint256",
          "name": "disputeId",
          "type": "uint256"
        }
      ],
      "name": "CreateClaim",
      "type": "event"
    },
    {
      "anonymous": false,
      "inputs": [
        {
          "indexed": true,
          "internalType": "address",
          "name": "planCreatedBy",
          "type": "address"
        },
        {
          "indexed": true,
          "internalType": "address",
          "name": "planInheritor",
          "type": "address"
        },
        {
          "indexed": true,
          "internalType": "uint256",
          "name": "metaEvidenceId",
          "type": "uint256"
        }
      ],
      "name": "CreatePlan",
      "type": "event"
    },
    {
      "anonymous": false,
      "inputs": [
        {
          "indexed": true,
          "internalType": "contract IArbitrator",
          "name": "_arbitrator",
          "type": "address"
        },
        {
          "indexed": true,
          "internalType": "uint256",
          "name": "_disputeID",
          "type": "uint256"
        },
        {
          "indexed": false,
          "internalType": "uint256",
          "name": "_metaEvidenceID",
          "type": "uint256"
        },
        {
          "indexed": false,
          "internalType": "uint256",
          "name": "_evidenceGroupID",
          "type": "uint256"
        }
      ],
      "name": "Dispute",
      "type": "event"
    },
    {
      "anonymous": false,
      "inputs": [
        {
          "indexed": true,
          "internalType": "contract IArbitrator",
          "name": "_arbitrator",
          "type": "address"
        },
        {
          "indexed": true,
          "internalType": "uint256",
          "name": "_evidenceGroupID",
          "type": "uint256"
        },
        {
          "indexed": true,
          "internalType": "address",
          "name": "_party",
          "type": "address"
        },
        {
          "indexed": false,
          "internalType": "string",
          "name": "_evidence",
          "type": "string"
        }
      ],
      "name": "Evidence",
      "type": "event"
    },
    {
      "anonymous": false,
      "inputs": [
        {
          "indexed": true,
          "internalType": "uint256",
          "name": "_metaEvidenceID",
          "type": "uint256"
        },
        {
          "indexed": false,
          "internalType": "string",
          "name": "_evidence",
          "type": "string"
        }
      ],
      "name": "MetaEvidence",
      "type": "event"
    },
    {
      "anonymous": false,
      "inputs": [
        {
          "indexed": true,
          "internalType": "contract IArbitrator",
          "name": "_arbitrator",
          "type": "address"
        },
        {
          "indexed": true,
          "internalType": "uint256",
          "name": "_disputeID",
          "type": "uint256"
        },
        {
          "indexed": false,
          "internalType": "uint256",
          "name": "_ruling",
          "type": "uint256"
        }
      ],
      "name": "Ruling",
      "type": "event"
    },
    {
      "inputs": [],
      "name": "arbitrator",
      "outputs": [
        {
          "internalType": "contract IArbitrator",
          "name": "",
          "type": "address"
        }
      ],
      "stateMutability": "view",
      "type": "function",
      "constant": true
    },
    {
      "inputs": [
        {
          "internalType": "uint256",
          "name": "",
          "type": "uint256"
        }
      ],
      "name": "claims",
      "outputs": [
        {
          "internalType": "uint256",
          "name": "planId",
          "type": "uint256"
        },
        {
          "internalType": "address",
          "name": "claimedBy",
          "type": "address"
        },
        {
          "internalType": "uint256",
          "name": "disputeId",
          "type": "uint256"
        },
        {
          "internalType": "uint256",
          "name": "metaEvidenceId",
          "type": "uint256"
        },
        {
          "internalType": "uint256",
          "name": "evidenceGroupId",
          "type": "uint256"
        },
        {
          "internalType": "enum SafexMain.ClaimStatus",
          "name": "status",
          "type": "uint8"
        },
        {
          "internalType": "string",
          "name": "result",
          "type": "string"
        }
      ],
      "stateMutability": "view",
      "type": "function",
      "constant": true
    },
    {
      "inputs": [],
      "name": "claimsCount",
      "outputs": [
        {
          "internalType": "uint256",
          "name": "",
          "type": "uint256"
        }
      ],
      "stateMutability": "view",
      "type": "function",
      "constant": true
    },
    {
      "inputs": [],
      "name": "evidenceGroupID",
      "outputs": [
        {
          "internalType": "uint256",
          "name": "",
          "type": "uint256"
        }
      ],
      "stateMutability": "view",
      "type": "function",
      "constant": true
    },
    {
      "inputs": [
        {
          "internalType": "address",
          "name": "",
          "type": "address"
        }
      ],
      "name": "hasCreatedPlan",
      "outputs": [
        {
          "internalType": "bool",
          "name": "",
          "type": "bool"
        }
      ],
      "stateMutability": "view",
      "type": "function",
      "constant": true
    },
    {
      "inputs": [],
      "name": "metaEvidenceID",
      "outputs": [
        {
          "internalType": "uint256",
          "name": "",
          "type": "uint256"
        }
      ],
      "stateMutability": "view",
      "type": "function",
      "constant": true
    },
    {
      "inputs": [
        {
          "internalType": "uint256",
          "name": "",
          "type": "uint256"
        }
      ],
      "name": "planExists",
      "outputs": [
        {
          "internalType": "bool",
          "name": "",
          "type": "bool"
        }
      ],
      "stateMutability": "view",
      "type": "function",
      "constant": true
    },
    {
      "inputs": [
        {
          "internalType": "uint256",
          "name": "",
          "type": "uint256"
        }
      ],
      "name": "plans",
      "outputs": [
        {
          "internalType": "uint256",
          "name": "planId",
          "type": "uint256"
        },
        {
          "internalType": "address",
          "name": "planCreatedBy",
          "type": "address"
        },
        {
          "internalType": "address",
          "name": "planCurrentOwner",
          "type": "address"
        },
        {
          "internalType": "address",
          "name": "planInheritor",
          "type": "address"
        },
        {
          "internalType": "uint256",
          "name": "metaEvidenceId",
          "type": "uint256"
        },
        {
          "internalType": "uint256",
          "name": "claimsCount",
          "type": "uint256"
        },
        {
          "internalType": "uint256",
          "name": "planFunds",
          "type": "uint256"
        }
      ],
      "stateMutability": "view",
      "type": "function",
      "constant": true
    },
    {
      "inputs": [],
      "name": "plansCount",
      "outputs": [
        {
          "internalType": "uint256",
          "name": "",
          "type": "uint256"
        }
      ],
      "stateMutability": "view",
      "type": "function",
      "constant": true
    },
    {
      "inputs": [],
      "name": "safexMainAdmin",
      "outputs": [
        {
          "internalType": "address",
          "name": "",
          "type": "address"
        }
      ],
      "stateMutability": "view",
      "type": "function",
      "constant": true
    },
    {
      "stateMutability": "payable",
      "type": "receive",
      "payable": true
    },
    {
      "inputs": [
        {
          "internalType": "address",
          "name": "_inheritor",
          "type": "address"
        },
        {
          "internalType": "string",
          "name": "_metaEvidence",
          "type": "string"
        }
      ],
      "name": "createPlan",
      "outputs": [],
      "stateMutability": "payable",
      "type": "function",
      "payable": true
    },
    {
      "inputs": [
        {
          "internalType": "uint256",
          "name": "_planId",
          "type": "uint256"
        },
        {
          "internalType": "string",
          "name": "_evidence",
          "type": "string"
        }
      ],
      "name": "createClaim",
      "outputs": [],
      "stateMutability": "payable",
      "type": "function",
      "payable": true
    },
    {
      "inputs": [
        {
          "internalType": "uint256",
          "name": "_disputeID",
          "type": "uint256"
        },
        {
          "internalType": "uint256",
          "name": "_ruling",
          "type": "uint256"
        }
      ],
      "name": "rule",
      "outputs": [],
      "stateMutability": "nonpayable",
      "type": "function"
    },
    {
      "inputs": [
        {
          "internalType": "uint256",
          "name": "_planId",
          "type": "uint256"
        }
      ],
      "name": "depositPlanFunds",
      "outputs": [],
      "stateMutability": "payable",
      "type": "function",
      "payable": true
    },
    {
      "inputs": [
        {
          "internalType": "uint256",
          "name": "_planId",
          "type": "uint256"
        }
      ],
      "name": "recoverPlanFunds",
      "outputs": [],
      "stateMutability": "nonpayable",
      "type": "function"
    },
    {
      "inputs": [
        {
          "internalType": "uint256",
          "name": "_disputeID",
          "type": "uint256"
        },
        {
          "internalType": "string",
          "name": "_evidence",
          "type": "string"
        }
      ],
      "name": "submitEvidence",
      "outputs": [],
      "stateMutability": "nonpayable",
      "type": "function"
    },
    {
      "inputs": [],
      "name": "getSafexMainContractBalance",
      "outputs": [
        {
          "internalType": "uint256",
          "name": "balance",
          "type": "uint256"
        }
      ],
      "stateMutability": "view",
      "type": "function",
      "constant": true
    },
    {
      "inputs": [],
      "name": "getTotalClaimsAllowed",
      "outputs": [
        {
          "internalType": "uint256",
          "name": "totalClaimsAllowed",
          "type": "uint256"
        }
      ],
      "stateMutability": "view",
      "type": "function",
      "constant": true
    }
  ],
  "bytecode": "0x608060405233600160006101000a81548173ffffffffffffffffffffffffffffffffffffffff021916908373ffffffffffffffffffffffffffffffffffffffff16021790555060006002556000600355600060045560006005556002600a553480156200006b57600080fd5b5060405162003d6738038062003d678339818101604052810190620000919190620000ef565b806000806101000a81548173ffffffffffffffffffffffffffffffffffffffff021916908373ffffffffffffffffffffffffffffffffffffffff160217905550506200017d565b600081519050620000e98162000163565b92915050565b6000602082840312156200010257600080fd5b60006200011284828501620000d8565b91505092915050565b6000620001288262000143565b9050919050565b60006200013c826200011b565b9050919050565b600073ffffffffffffffffffffffffffffffffffffffff82169050919050565b6200016e816200012f565b81146200017a57600080fd5b50565b613bda806200018d6000396000f3fe60806040526004361061010d5760003560e01c80638bf0600611610095578063b755424011610064578063b75542401461037a578063bac9dcff14610396578063bbd245ea146103bf578063bcdab199146103ea578063f32f68241461041557610114565b80638bf06006146102af578063a6a7f0eb146102cb578063a888c2cd146102f4578063b16206161461033757610114565b80636893e234116100dc5780636893e234146101d5578063689a118b146102125780636cc6cde11461023d5780637999fe1e14610268578063895934711461028457610114565b80632e146c0e14610119578063311a6c5614610156578063591c613c1461017f5780635d561c08146101aa57610114565b3661011457005b600080fd5b34801561012557600080fd5b50610140600480360381019061013b9190612c19565b610440565b60405161014d91906130fa565b60405180910390f35b34801561016257600080fd5b5061017d60048036038101906101789190612d44565b610460565b005b34801561018b57600080fd5b50610194610b72565b6040516101a19190613394565b60405180910390f35b3480156101b657600080fd5b506101bf610b78565b6040516101cc9190613394565b60405180910390f35b3480156101e157600080fd5b506101fc60048036038101906101f79190612c9a565b610b7e565b60405161020991906130fa565b60405180910390f35b34801561021e57600080fd5b50610227610b9e565b6040516102349190613394565b60405180910390f35b34801561024957600080fd5b50610252610ba4565b60405161025f9190613115565b60405180910390f35b610282600480360381019061027d9190612cec565b610bc8565b005b34801561029057600080fd5b506102996116ba565b6040516102a69190613394565b60405180910390f35b6102c960048036038101906102c49190612c42565b6116c2565b005b3480156102d757600080fd5b506102f260048036038101906102ed9190612cec565b611e46565b005b34801561030057600080fd5b5061031b60048036038101906103169190612c9a565b612148565b60405161032e979695949392919061341e565b60405180910390f35b34801561034357600080fd5b5061035e60048036038101906103599190612c9a565b61223f565b60405161037197969594939291906133af565b60405180910390f35b610394600480360381019061038f9190612c9a565b6122e1565b005b3480156103a257600080fd5b506103bd60048036038101906103b89190612c9a565b61266e565b005b3480156103cb57600080fd5b506103d4612ab7565b6040516103e19190613394565b60405180910390f35b3480156103f657600080fd5b506103ff612abd565b60405161040c9190613394565b60405180910390f35b34801561042157600080fd5b5061042a612ac7565b60405161043791906130df565b60405180910390f35b60096020528060005260406000206000915054906101000a900460ff1681565b60008054906101000a900473ffffffffffffffffffffffffffffffffffffffff1673ffffffffffffffffffffffffffffffffffffffff163373ffffffffffffffffffffffffffffffffffffffff16146104ee576040517f08c379a00000000000000000000000000000000000000000000000000000000081526004016104e590613154565b60405180910390fd5b6002811115610532576040517f08c379a0000000000000000000000000000000000000000000000000000000008152600401610529906132b4565b60405180910390fd5b6000600760008481526020019081526020016000206040518060e0016040529081600082015481526020016001820160009054906101000a900473ffffffffffffffffffffffffffffffffffffffff1673ffffffffffffffffffffffffffffffffffffffff1673ffffffffffffffffffffffffffffffffffffffff1681526020016002820154815260200160038201548152602001600482015481526020016005820160009054906101000a900460ff16600281111561061b577f4e487b7100000000000000000000000000000000000000000000000000000000600052602160045260246000fd5b6002811115610653577f4e487b7100000000000000000000000000000000000000000000000000000000600052602160045260246000fd5b815260200160068201805461066790613680565b80601f016020809104026020016040519081016040528092919081815260200182805461069390613680565b80156106e05780601f106106b5576101008083540402835291602001916106e0565b820191906000526020600020905b8154815290600101906020018083116106c357829003601f168201915b505050505081525050905060006002811115610725577f4e487b7100000000000000000000000000000000000000000000000000000000600052602160045260246000fd5b8160a001516002811115610762577f4e487b7100000000000000000000000000000000000000000000000000000000600052602160045260246000fd5b146107a2576040517f08c379a000000000000000000000000000000000000000000000000000000000815260040161079990613354565b60405180910390fd5b600160028111156107dc577f4e487b7100000000000000000000000000000000000000000000000000000000600052602160045260246000fd5b8214156108a35760018160a001906002811115610822577f4e487b7100000000000000000000000000000000000000000000000000000000600052602160045260246000fd5b9081600281111561085c577f4e487b7100000000000000000000000000000000000000000000000000000000600052602160045260246000fd5b815250506040518060400160405280601781526020017f496e697469617465207265636f6e737472756374696f6e0000000000000000008152508160c00181905250610a25565b6002808111156108dc577f4e487b7100000000000000000000000000000000000000000000000000000000600052602160045260246000fd5b8214156109a35760028160a001906002811115610922577f4e487b7100000000000000000000000000000000000000000000000000000000600052602160045260246000fd5b9081600281111561095c577f4e487b7100000000000000000000000000000000000000000000000000000000600052602160045260246000fd5b815250506040518060400160405280601e81526020017f446f206e6f7420696e697469617465207265636f6e737472756374696f6e00008152508160c00181905250610a24565b600060028111156109dd577f4e487b7100000000000000000000000000000000000000000000000000000000600052602160045260246000fd5b821415610a23576040518060400160405280601481526020017f5265667573656420746f206172626974726174650000000000000000000000008152508160c001819052505b5b5b80600760008581526020019081526020016000206000820151816000015560208201518160010160006101000a81548173ffffffffffffffffffffffffffffffffffffffff021916908373ffffffffffffffffffffffffffffffffffffffff16021790555060408201518160020155606082015181600301556080820151816004015560a08201518160050160006101000a81548160ff02191690836002811115610af9577f4e487b7100000000000000000000000000000000000000000000000000000000600052602160045260246000fd5b021790555060c0820151816006019080519060200190610b1a929190612aed565b50905050823373ffffffffffffffffffffffffffffffffffffffff167f394027a5fa6e098a1191094d1719d6929b9abc535fcc0c8f448d6a4e7562227684604051610b659190613394565b60405180910390a3505050565b60025481565b60055481565b60086020528060005260406000206000915054906101000a900460ff1681565b60045481565b60008054906101000a900473ffffffffffffffffffffffffffffffffffffffff1681565b6008600084815260200190815260200160002060009054906101000a900460ff16610c28576040517f08c379a0000000000000000000000000000000000000000000000000000000008152600401610c1f90613254565b60405180910390fd5b6000600660008581526020019081526020016000206040518060e0016040529081600082015481526020016001820160009054906101000a900473ffffffffffffffffffffffffffffffffffffffff1673ffffffffffffffffffffffffffffffffffffffff1673ffffffffffffffffffffffffffffffffffffffff1681526020016002820160009054906101000a900473ffffffffffffffffffffffffffffffffffffffff1673ffffffffffffffffffffffffffffffffffffffff1673ffffffffffffffffffffffffffffffffffffffff1681526020016003820160009054906101000a900473ffffffffffffffffffffffffffffffffffffffff1673ffffffffffffffffffffffffffffffffffffffff1673ffffffffffffffffffffffffffffffffffffffff16815260200160048201548152602001600582015481526020016006820154815250509050600a548160a0015110610dbc576040517f08c379a0000000000000000000000000000000000000000000000000000000008152600401610db390613174565b60405180910390fd5b806060015173ffffffffffffffffffffffffffffffffffffffff163373ffffffffffffffffffffffffffffffffffffffff1614610e2e576040517f08c379a0000000000000000000000000000000000000000000000000000000008152600401610e25906132d4565b60405180910390fd5b60008054906101000a900473ffffffffffffffffffffffffffffffffffffffff1673ffffffffffffffffffffffffffffffffffffffff1663f7434ea96040518163ffffffff1660e01b8152600401610e8590613334565b60206040518083038186803b158015610e9d57600080fd5b505afa158015610eb1573d6000803e3d6000fd5b505050506040513d601f19601f82011682018060405250810190610ed59190612cc3565b8160c001511015610f1b576040517f08c379a0000000000000000000000000000000000000000000000000000000008152600401610f1290613194565b60405180910390fd5b60008060009054906101000a900473ffffffffffffffffffffffffffffffffffffffff1673ffffffffffffffffffffffffffffffffffffffff1663c13517e160008054906101000a900473ffffffffffffffffffffffffffffffffffffffff1673ffffffffffffffffffffffffffffffffffffffff1663f7434ea96040518163ffffffff1660e01b8152600401610fb190613334565b60206040518083038186803b158015610fc957600080fd5b505afa158015610fdd573d6000803e3d6000fd5b505050506040513d601f19601f820116820180604052508101906110019190612cc3565b60026040518363ffffffff1660e01b815260040161101f9190613494565b6020604051808303818588803b15801561103857600080fd5b505af115801561104c573d6000803e3d6000fd5b50505050506040513d601f19601f820116820180604052508101906110719190612cc3565b90506001600560008282546110869190613523565b925050819055508060008054906101000a900473ffffffffffffffffffffffffffffffffffffffff1673ffffffffffffffffffffffffffffffffffffffff167f74baab670a4015ab2f1b467c5252a96141a2573f2908e58a92081e80d3cfde3d84608001516005546040516110fc9291906134c2565b60405180910390a36000600760008381526020019081526020016000206040518060e0016040529081600082015481526020016001820160009054906101000a900473ffffffffffffffffffffffffffffffffffffffff1673ffffffffffffffffffffffffffffffffffffffff1673ffffffffffffffffffffffffffffffffffffffff1681526020016002820154815260200160038201548152602001600482015481526020016005820160009054906101000a900460ff1660028111156111ed577f4e487b7100000000000000000000000000000000000000000000000000000000600052602160045260246000fd5b6002811115611225577f4e487b7100000000000000000000000000000000000000000000000000000000600052602160045260246000fd5b815260200160068201805461123990613680565b80601f016020809104026020016040519081016040528092919081815260200182805461126590613680565b80156112b25780601f10611287576101008083540402835291602001916112b2565b820191906000526020600020905b81548152906001019060200180831161129557829003601f168201915b50505050508152505090506040518060e001604052808781526020013373ffffffffffffffffffffffffffffffffffffffff1681526020018381526020018460800151815260200160055481526020016000600281111561133c577f4e487b7100000000000000000000000000000000000000000000000000000000600052602160045260246000fd5b815260200160405180602001604052806000815250815250905080600760008481526020019081526020016000206000820151816000015560208201518160010160006101000a81548173ffffffffffffffffffffffffffffffffffffffff021916908373ffffffffffffffffffffffffffffffffffffffff16021790555060408201518160020155606082015181600301556080820151816004015560a08201518160050160006101000a81548160ff0219169083600281111561142a577f4e487b7100000000000000000000000000000000000000000000000000000000600052602160045260246000fd5b021790555060c082015181600601908051906020019061144b929190612aed565b509050506001600360008282546114629190613523565b9250508190555081863373ffffffffffffffffffffffffffffffffffffffff167f36dcc3cbbf18e5dd24f2edb93e0c12d7ef79b85533dff1a0a20c84a586531d3a60405160405180910390a460018360a0018181516114c19190613523565b9150818152505060008054906101000a900473ffffffffffffffffffffffffffffffffffffffff1673ffffffffffffffffffffffffffffffffffffffff1663f7434ea96040518163ffffffff1660e01b815260040161151f90613334565b60206040518083038186803b15801561153757600080fd5b505afa15801561154b573d6000803e3d6000fd5b505050506040513d601f19601f8201168201806040525081019061156f9190612cc3565b8360c0018181516115809190613579565b9150818152505082600660008881526020019081526020016000206000820151816000015560208201518160010160006101000a81548173ffffffffffffffffffffffffffffffffffffffff021916908373ffffffffffffffffffffffffffffffffffffffff16021790555060408201518160020160006101000a81548173ffffffffffffffffffffffffffffffffffffffff021916908373ffffffffffffffffffffffffffffffffffffffff16021790555060608201518160030160006101000a81548173ffffffffffffffffffffffffffffffffffffffff021916908373ffffffffffffffffffffffffffffffffffffffff1602179055506080820151816004015560a0820151816005015560c08201518160060155905050600085859050146116b2576116b1828686611e46565b5b505050505050565b600047905090565b60008054906101000a900473ffffffffffffffffffffffffffffffffffffffff1673ffffffffffffffffffffffffffffffffffffffff1663f7434ea96040518163ffffffff1660e01b815260040161171990613334565b60206040518083038186803b15801561173157600080fd5b505afa158015611745573d6000803e3d6000fd5b505050506040513d601f19601f820116820180604052508101906117699190612cc3565b3410156117ab576040517f08c379a00000000000000000000000000000000000000000000000000000000081526004016117a290613294565b60405180910390fd5b600960003373ffffffffffffffffffffffffffffffffffffffff1673ffffffffffffffffffffffffffffffffffffffff16815260200190815260200160002060009054906101000a900460ff1615611838576040517f08c379a000000000000000000000000000000000000000000000000000000000815260040161182f906131b4565b60405180910390fd5b6000828290501161187e576040517f08c379a0000000000000000000000000000000000000000000000000000000008152600401611875906132f4565b60405180910390fd5b600073ffffffffffffffffffffffffffffffffffffffff168373ffffffffffffffffffffffffffffffffffffffff1614156118ee576040517f08c379a00000000000000000000000000000000000000000000000000000000081526004016118e590613314565b60405180910390fd5b8273ffffffffffffffffffffffffffffffffffffffff163373ffffffffffffffffffffffffffffffffffffffff16141561195d576040517f08c379a000000000000000000000000000000000000000000000000000000000815260040161195490613214565b60405180910390fd5b6001600260008282546119709190613523565b9250508190555060016004600082825461198a9190613523565b9250508190555060006006600060025481526020019081526020016000206040518060e0016040529081600082015481526020016001820160009054906101000a900473ffffffffffffffffffffffffffffffffffffffff1673ffffffffffffffffffffffffffffffffffffffff1673ffffffffffffffffffffffffffffffffffffffff1681526020016002820160009054906101000a900473ffffffffffffffffffffffffffffffffffffffff1673ffffffffffffffffffffffffffffffffffffffff1673ffffffffffffffffffffffffffffffffffffffff1681526020016003820160009054906101000a900473ffffffffffffffffffffffffffffffffffffffff1673ffffffffffffffffffffffffffffffffffffffff1673ffffffffffffffffffffffffffffffffffffffff168152602001600482015481526020016005820154815260200160068201548152505090506040518060e0016040528060025481526020013373ffffffffffffffffffffffffffffffffffffffff1681526020013373ffffffffffffffffffffffffffffffffffffffff1681526020018573ffffffffffffffffffffffffffffffffffffffff168152602001600454815260200160008152602001348152509050806006600060025481526020019081526020016000206000820151816000015560208201518160010160006101000a81548173ffffffffffffffffffffffffffffffffffffffff021916908373ffffffffffffffffffffffffffffffffffffffff16021790555060408201518160020160006101000a81548173ffffffffffffffffffffffffffffffffffffffff021916908373ffffffffffffffffffffffffffffffffffffffff16021790555060608201518160030160006101000a81548173ffffffffffffffffffffffffffffffffffffffff021916908373ffffffffffffffffffffffffffffffffffffffff1602179055506080820151816004015560a0820151816005015560c082015181600601559050506000803073ffffffffffffffffffffffffffffffffffffffff1634604051611c98906130ca565b60006040518083038185875af1925050503d8060008114611cd5576040519150601f19603f3d011682016040523d82523d6000602084013e611cda565b606091505b509150915081611d1f576040517f08c379a0000000000000000000000000000000000000000000000000000000008152600401611d16906131d4565b60405180910390fd5b6004547f61606860eb6c87306811e2695215385101daab53bd6ab4e9f9049aead9363c7d8686604051611d53929190613130565b60405180910390a26004548673ffffffffffffffffffffffffffffffffffffffff163373ffffffffffffffffffffffffffffffffffffffff167f62e18768a5b083121bc7c2d3d8be246328fa667a7efe4a7934d84b23195305b460405160405180910390a46001600960003373ffffffffffffffffffffffffffffffffffffffff1673ffffffffffffffffffffffffffffffffffffffff16815260200190815260200160002060006101000a81548160ff021916908315150217905550600160086000600254815260200190815260200160002060006101000a81548160ff021916908315150217905550505050505050565b600354831115611e8b576040517f08c379a0000000000000000000000000000000000000000000000000000000008152600401611e8290613274565b60405180910390fd5b6000600760008581526020019081526020016000206040518060e0016040529081600082015481526020016001820160009054906101000a900473ffffffffffffffffffffffffffffffffffffffff1673ffffffffffffffffffffffffffffffffffffffff1673ffffffffffffffffffffffffffffffffffffffff1681526020016002820154815260200160038201548152602001600482015481526020016005820160009054906101000a900460ff166002811115611f74577f4e487b7100000000000000000000000000000000000000000000000000000000600052602160045260246000fd5b6002811115611fac577f4e487b7100000000000000000000000000000000000000000000000000000000600052602160045260246000fd5b8152602001600682018054611fc090613680565b80601f0160208091040260200160405190810160405280929190818152602001828054611fec90613680565b80156120395780601f1061200e57610100808354040283529160200191612039565b820191906000526020600020905b81548152906001019060200180831161201c57829003601f168201915b5050505050815250509050806020015173ffffffffffffffffffffffffffffffffffffffff163373ffffffffffffffffffffffffffffffffffffffff16146120b6576040517f08c379a00000000000000000000000000000000000000000000000000000000081526004016120ad906131f4565b60405180910390fd5b3373ffffffffffffffffffffffffffffffffffffffff16816080015160008054906101000a900473ffffffffffffffffffffffffffffffffffffffff1673ffffffffffffffffffffffffffffffffffffffff167fdccf2f8b2cc26eafcd61905cba744cff4b81d14740725f6376390dc6298a6a3c868660405161213a929190613130565b60405180910390a450505050565b60076020528060005260406000206000915090508060000154908060010160009054906101000a900473ffffffffffffffffffffffffffffffffffffffff16908060020154908060030154908060040154908060050160009054906101000a900460ff16908060060180546121bc90613680565b80601f01602080910402602001604051908101604052809291908181526020018280546121e890613680565b80156122355780601f1061220a57610100808354040283529160200191612235565b820191906000526020600020905b81548152906001019060200180831161221857829003601f168201915b5050505050905087565b60066020528060005260406000206000915090508060000154908060010160009054906101000a900473ffffffffffffffffffffffffffffffffffffffff16908060020160009054906101000a900473ffffffffffffffffffffffffffffffffffffffff16908060030160009054906101000a900473ffffffffffffffffffffffffffffffffffffffff16908060040154908060050154908060060154905087565b6008600082815260200190815260200160002060009054906101000a900460ff16612341576040517f08c379a000000000000000000000000000000000000000000000000000000000815260040161233890613254565b60405180910390fd5b6000600660008381526020019081526020016000206040518060e0016040529081600082015481526020016001820160009054906101000a900473ffffffffffffffffffffffffffffffffffffffff1673ffffffffffffffffffffffffffffffffffffffff1673ffffffffffffffffffffffffffffffffffffffff1681526020016002820160009054906101000a900473ffffffffffffffffffffffffffffffffffffffff1673ffffffffffffffffffffffffffffffffffffffff1673ffffffffffffffffffffffffffffffffffffffff1681526020016003820160009054906101000a900473ffffffffffffffffffffffffffffffffffffffff1673ffffffffffffffffffffffffffffffffffffffff1673ffffffffffffffffffffffffffffffffffffffff16815260200160048201548152602001600582015481526020016006820154815250509050348160c00181815161249f9190613523565b9150818152505080600660008481526020019081526020016000206000820151816000015560208201518160010160006101000a81548173ffffffffffffffffffffffffffffffffffffffff021916908373ffffffffffffffffffffffffffffffffffffffff16021790555060408201518160020160006101000a81548173ffffffffffffffffffffffffffffffffffffffff021916908373ffffffffffffffffffffffffffffffffffffffff16021790555060608201518160030160006101000a81548173ffffffffffffffffffffffffffffffffffffffff021916908373ffffffffffffffffffffffffffffffffffffffff1602179055506080820151816004015560a0820151816005015560c082015181600601559050506000803073ffffffffffffffffffffffffffffffffffffffff16346040516125e1906130ca565b60006040518083038185875af1925050503d806000811461261e576040519150601f19603f3d011682016040523d82523d6000602084013e612623565b606091505b509150915081612668576040517f08c379a000000000000000000000000000000000000000000000000000000000815260040161265f906131d4565b60405180910390fd5b50505050565b6008600082815260200190815260200160002060009054906101000a900460ff166126ce576040517f08c379a00000000000000000000000000000000000000000000000000000000081526004016126c590613254565b60405180910390fd5b6000600660008381526020019081526020016000206040518060e0016040529081600082015481526020016001820160009054906101000a900473ffffffffffffffffffffffffffffffffffffffff1673ffffffffffffffffffffffffffffffffffffffff1673ffffffffffffffffffffffffffffffffffffffff1681526020016002820160009054906101000a900473ffffffffffffffffffffffffffffffffffffffff1673ffffffffffffffffffffffffffffffffffffffff1673ffffffffffffffffffffffffffffffffffffffff1681526020016003820160009054906101000a900473ffffffffffffffffffffffffffffffffffffffff1673ffffffffffffffffffffffffffffffffffffffff1673ffffffffffffffffffffffffffffffffffffffff16815260200160048201548152602001600582015481526020016006820154815250509050806040015173ffffffffffffffffffffffffffffffffffffffff163373ffffffffffffffffffffffffffffffffffffffff161461288c576040517f08c379a000000000000000000000000000000000000000000000000000000000815260040161288390613234565b60405180910390fd5b60008160c0015114156128d4576040517f08c379a00000000000000000000000000000000000000000000000000000000081526004016128cb90613374565b60405180910390fd5b60008160c00151905060008260c001818152505081600660008581526020019081526020016000206000820151816000015560208201518160010160006101000a81548173ffffffffffffffffffffffffffffffffffffffff021916908373ffffffffffffffffffffffffffffffffffffffff16021790555060408201518160020160006101000a81548173ffffffffffffffffffffffffffffffffffffffff021916908373ffffffffffffffffffffffffffffffffffffffff16021790555060608201518160030160006101000a81548173ffffffffffffffffffffffffffffffffffffffff021916908373ffffffffffffffffffffffffffffffffffffffff1602179055506080820151816004015560a0820151816005015560c0820151816006015590505060003390506000808273ffffffffffffffffffffffffffffffffffffffff1684604051612a28906130ca565b60006040518083038185875af1925050503d8060008114612a65576040519150601f19603f3d011682016040523d82523d6000602084013e612a6a565b606091505b509150915081612aaf576040517f08c379a0000000000000000000000000000000000000000000000000000000008152600401612aa6906131d4565b60405180910390fd5b505050505050565b60035481565b6000600a54905090565b600160009054906101000a900473ffffffffffffffffffffffffffffffffffffffff1681565b828054612af990613680565b90600052602060002090601f016020900481019282612b1b5760008555612b62565b82601f10612b3457805160ff1916838001178555612b62565b82800160010185558215612b62579182015b82811115612b61578251825591602001919060010190612b46565b5b509050612b6f9190612b73565b5090565b5b80821115612b8c576000816000905550600101612b74565b5090565b600081359050612b9f81613b76565b92915050565b60008083601f840112612bb757600080fd5b8235905067ffffffffffffffff811115612bd057600080fd5b602083019150836001820283011115612be857600080fd5b9250929050565b600081359050612bfe81613b8d565b92915050565b600081519050612c1381613b8d565b92915050565b600060208284031215612c2b57600080fd5b6000612c3984828501612b90565b91505092915050565b600080600060408486031215612c5757600080fd5b6000612c6586828701612b90565b935050602084013567ffffffffffffffff811115612c8257600080fd5b612c8e86828701612ba5565b92509250509250925092565b600060208284031215612cac57600080fd5b6000612cba84828501612bef565b91505092915050565b600060208284031215612cd557600080fd5b6000612ce384828501612c04565b91505092915050565b600080600060408486031215612d0157600080fd5b6000612d0f86828701612bef565b935050602084013567ffffffffffffffff811115612d2c57600080fd5b612d3886828701612ba5565b92509250509250925092565b60008060408385031215612d5757600080fd5b6000612d6585828601612bef565b9250506020612d7685828601612bef565b9150509250929050565b612d89816135ad565b82525050565b612d98816135bf565b82525050565b612da781613608565b82525050565b612db68161362c565b82525050565b6000612dc88385613512565b9350612dd583858461363e565b612dde8361373f565b840190509392505050565b6000612df4826134eb565b612dfe8185613512565b9350612e0e81856020860161364d565b612e178161373f565b840191505092915050565b6000612e2f602083613512565b9150612e3a82613750565b602082019050919050565b6000612e52603683613512565b9150612e5d82613779565b604082019050919050565b6000612e75603983613512565b9150612e80826137c8565b604082019050919050565b6000612e98602183613512565b9150612ea382613817565b604082019050919050565b6000612ebb601483613512565b9150612ec682613866565b602082019050919050565b6000612ede603183613512565b9150612ee98261388f565b604082019050919050565b6000612f01603483613512565b9150612f0c826138de565b604082019050919050565b6000612f24602f83613512565b9150612f2f8261392d565b604082019050919050565b6000612f47601383613512565b9150612f528261397c565b602082019050919050565b6000612f6a601f83613512565b9150612f75826139a5565b602082019050919050565b6000612f8d601683613512565b9150612f98826139ce565b602082019050919050565b6000612fb0601583613512565b9150612fbb826139f7565b602082019050919050565b6000612fd3602f83613512565b9150612fde82613a20565b604082019050919050565b6000612ff6602c83613512565b915061300182613a6f565b604082019050919050565b6000613019602883613512565b915061302482613abe565b604082019050919050565b600061303c6000836134f6565b915061304782613b0d565b600082019050919050565b600061305f600083613507565b915061306a82613b0d565b600082019050919050565b6000613082601683613512565b915061308d82613b10565b602082019050919050565b60006130a5601e83613512565b91506130b082613b39565b602082019050919050565b6130c4816135fe565b82525050565b60006130d582613052565b9150819050919050565b60006020820190506130f46000830184612d80565b92915050565b600060208201905061310f6000830184612d8f565b92915050565b600060208201905061312a6000830184612d9e565b92915050565b6000602082019050818103600083015261314b818486612dbc565b90509392505050565b6000602082019050818103600083015261316d81612e22565b9050919050565b6000602082019050818103600083015261318d81612e45565b9050919050565b600060208201905081810360008301526131ad81612e68565b9050919050565b600060208201905081810360008301526131cd81612e8b565b9050919050565b600060208201905081810360008301526131ed81612eae565b9050919050565b6000602082019050818103600083015261320d81612ed1565b9050919050565b6000602082019050818103600083015261322d81612ef4565b9050919050565b6000602082019050818103600083015261324d81612f17565b9050919050565b6000602082019050818103600083015261326d81612f3a565b9050919050565b6000602082019050818103600083015261328d81612f5d565b9050919050565b600060208201905081810360008301526132ad81612f80565b9050919050565b600060208201905081810360008301526132cd81612fa3565b9050919050565b600060208201905081810360008301526132ed81612fc6565b9050919050565b6000602082019050818103600083015261330d81612fe9565b9050919050565b6000602082019050818103600083015261332d8161300c565b9050919050565b6000602082019050818103600083015261334d8161302f565b9050919050565b6000602082019050818103600083015261336d81613075565b9050919050565b6000602082019050818103600083015261338d81613098565b9050919050565b60006020820190506133a960008301846130bb565b92915050565b600060e0820190506133c4600083018a6130bb565b6133d16020830189612d80565b6133de6040830188612d80565b6133eb6060830187612d80565b6133f860808301866130bb565b61340560a08301856130bb565b61341260c08301846130bb565b98975050505050505050565b600060e082019050613433600083018a6130bb565b6134406020830189612d80565b61344d60408301886130bb565b61345a60608301876130bb565b61346760808301866130bb565b61347460a0830185612dad565b81810360c08301526134868184612de9565b905098975050505050505050565b60006040820190506134a960008301846130bb565b81810360208301526134ba8161302f565b905092915050565b60006040820190506134d760008301856130bb565b6134e460208301846130bb565b9392505050565b600081519050919050565b600082825260208201905092915050565b600081905092915050565b600082825260208201905092915050565b600061352e826135fe565b9150613539836135fe565b9250827fffffffffffffffffffffffffffffffffffffffffffffffffffffffffffffffff0382111561356e5761356d6136b2565b5b828201905092915050565b6000613584826135fe565b915061358f836135fe565b9250828210156135a2576135a16136b2565b5b828203905092915050565b60006135b8826135de565b9050919050565b60008115159050919050565b60008190506135d982613b62565b919050565b600073ffffffffffffffffffffffffffffffffffffffff82169050919050565b6000819050919050565b60006136138261361a565b9050919050565b6000613625826135de565b9050919050565b6000613637826135cb565b9050919050565b82818337600083830152505050565b60005b8381101561366b578082015181840152602081019050613650565b8381111561367a576000848401525b50505050565b6000600282049050600182168061369857607f821691505b602082108114156136ac576136ab613710565b5b50919050565b7f4e487b7100000000000000000000000000000000000000000000000000000000600052601160045260246000fd5b7f4e487b7100000000000000000000000000000000000000000000000000000000600052602160045260246000fd5b7f4e487b7100000000000000000000000000000000000000000000000000000000600052602260045260246000fd5b6000601f19601f8301169050919050565b7f4f6e6c792061726269747261746f722063616e20657865637574652074686973600082015250565b7f546f74616c206e756d626572206f6620636c61696d73206f6e206120706c616e60008201527f20686173207265616368656420746865206c696d697400000000000000000000602082015250565b7f496e73756666696369656e742066756e647320696e2074686520706c616e207460008201527f6f2070617920746865206172626974726174696f6e2066656500000000000000602082015250565b7f53656e6465722068617320616c72656164792063726561746564206120706c6160008201527f6e00000000000000000000000000000000000000000000000000000000000000602082015250565b7f4661696c656420746f2073656e64204574686572000000000000000000000000600082015250565b7f4f6e6c792063726561746f72206f662074686520636c61696d2063616e20737560008201527f626d6974207468652065766964656e6365000000000000000000000000000000602082015250565b7f506c616e2063726561746f722073686f756c64206e6f7420626520746865206960008201527f6e68657269746f72206f662074686520706c616e000000000000000000000000602082015250565b7f4f6e6c7920706c616e206f776e65722063616e207265636f766572207468652060008201527f6465706f7369742062616c616e63650000000000000000000000000000000000602082015250565b7f506c616e20646f6573206e6f7420657869737400000000000000000000000000600082015250565b7f436c61696d206f72204469737075746520646f6573206e6f7420657869737400600082015250565b7f496e616465717561746520666565207061796d656e7400000000000000000000600082015250565b7f52756c696e67206f7574206f6620626f756e6473210000000000000000000000600082015250565b7f4f6e6c7920696e68657269746f72206f662074686520706c616e2063616e206360008201527f72656174652074686520636c61696d0000000000000000000000000000000000602082015250565b7f53686f756c642070726f76696465206d65746145766964656e636520746f206360008201527f7265617465206120706c616e0000000000000000000000000000000000000000602082015250565b7f53686f756c642070726f7669646520616e20696e68657269746f7220666f722060008201527f74686520706c616e000000000000000000000000000000000000000000000000602082015250565b50565b7f436c61696d20616c7265616479207265736f6c76656400000000000000000000600082015250565b7f4e6f2066756e64732072656d61696e696e6720696e2074686520706c616e0000600082015250565b60038110613b7357613b726136e1565b5b50565b613b7f816135ad565b8114613b8a57600080fd5b50565b613b96816135fe565b8114613ba157600080fd5b5056fea2646970667358221220a418c533a62dc4695556049d6b59cf790e95132f6ed8c37b25060db6eec811f664736f6c63430008030033",
  "immutableReferences": {},
  "source": "// SPDX-License-Identifier: MIT\npragma solidity >=0.7;\n\nimport \"./IArbitrable.sol\";\nimport \"./IArbitrator.sol\";\nimport \"./IEvidence.sol\";\n\ncontract SafexMain is IArbitrable, IEvidence {\n    /* Constants and Immutable */\n    uint256 private constant RULING_OPTIONS = 2;\n\n    /* Enums */\n    enum ClaimStatus {Active, Passed, Failed}\n\n    enum ClaimResult {\n        refusedToArbitrate,\n        initiateReconstruction,\n        doNotInitiateReconstruction\n    }\n\n    /* Structs */\n    struct Plan {\n        uint256 planId;\n        address planCreatedBy;\n        address planCurrentOwner;\n        address planInheritor;\n        uint256 metaEvidenceId;\n        uint256 claimsCount;\n        uint256 planFunds;\n    }\n\n    struct Claim {\n        uint256 planId;\n        address claimedBy;\n        uint256 disputeId;\n        uint256 metaEvidenceId;\n        uint256 evidenceGroupId;\n        ClaimStatus status;\n        string result;\n    }\n\n    /* Storage - Public */\n    IArbitrator public arbitrator;\n\n    address public safexMainAdmin = msg.sender;\n\n    uint256 public plansCount = 0;\n    uint256 public claimsCount = 0;\n    uint256 public metaEvidenceID = 0;\n    uint256 public evidenceGroupID = 0;\n\n    mapping(uint256 => Plan) public plans; // starts from 1\n    mapping(uint256 => Claim) public claims; // starts from 0 (because, disputeId starts from 0)\n    mapping(uint256 => bool) public planExists;\n    mapping(address => bool) public hasCreatedPlan;\n\n    /* Storage - Private */\n    uint256 private _totalClaimsAllowed = 2;\n\n    /* Modifiers */\n    modifier onlySafexMainAdmin {\n        require(\n            msg.sender == safexMainAdmin,\n            \"Only SafexMain contract's admin can execute this\"\n        );\n        _;\n    }\n\n    modifier onlyArbitrator() {\n        require(\n            msg.sender == address(arbitrator),\n            \"Only arbitrator can execute this\"\n        );\n        _;\n    }\n\n    /* Events */\n    event CreatePlan(\n        address indexed planCreatedBy,\n        address indexed planInheritor,\n        uint256 indexed metaEvidenceId\n    );\n\n    event CreateClaim(\n        address indexed claimCreatedBy,\n        uint256 indexed planId,\n        uint256 indexed disputeId\n    );\n\n    /* Constructor */\n    constructor(IArbitrator _arbitrator) {\n        arbitrator = _arbitrator;\n    }\n\n    /* Functions - External */\n    receive() external payable {}\n\n    function createPlan(address _inheritor, string calldata _metaEvidence)\n        external\n        payable\n    {\n        require(\n            msg.value >= arbitrator.arbitrationCost(\"\"),\n            \"Inadequate fee payment\"\n        );\n        require(\n            !hasCreatedPlan[msg.sender],\n            \"Sender has already created a plan\"\n        );\n        require(\n            bytes(_metaEvidence).length > 0,\n            \"Should provide metaEvidence to create a plan\"\n        );\n        require(\n            _inheritor != address(0),\n            \"Should provide an inheritor for the plan\"\n        );\n        require(\n            msg.sender != _inheritor,\n            \"Plan creator should not be the inheritor of the plan\"\n        );\n\n        plansCount += 1;\n        metaEvidenceID += 1;\n\n        Plan memory plan = plans[plansCount];\n        plan = Plan({\n            planId: plansCount,\n            planCreatedBy: msg.sender,\n            planCurrentOwner: msg.sender,\n            planInheritor: _inheritor,\n            metaEvidenceId: metaEvidenceID,\n            claimsCount: 0,\n            planFunds: msg.value\n        });\n        plans[plansCount] = plan;\n\n        (bool sent, bytes memory data) =\n            address(this).call{value: msg.value}(\"\");\n        require(sent, \"Failed to send Ether\");\n\n        emit MetaEvidence(metaEvidenceID, _metaEvidence);\n        emit CreatePlan(msg.sender, _inheritor, metaEvidenceID);\n\n        hasCreatedPlan[msg.sender] = true;\n        planExists[plansCount] = true;\n    }\n\n    function createClaim(uint256 _planId, string calldata _evidence)\n        external\n        payable\n    {\n        require(planExists[_planId], \"Plan does not exist\");\n\n        Plan memory plan = plans[_planId];\n\n        require(\n            plan.claimsCount < _totalClaimsAllowed,\n            \"Total number of claims on a plan has reached the limit\"\n        );\n        require(\n            msg.sender == plan.planInheritor,\n            \"Only inheritor of the plan can create the claim\"\n        );\n        require(\n            plan.planFunds >= arbitrator.arbitrationCost(\"\"),\n            \"Insufficient funds in the plan to pay the arbitration fee\"\n        );\n\n        uint256 disputeID =\n            arbitrator.createDispute{value: arbitrator.arbitrationCost(\"\")}(\n                RULING_OPTIONS,\n                \"\"\n            );\n\n        evidenceGroupID += 1;\n\n        emit Dispute(\n            arbitrator,\n            disputeID,\n            plan.metaEvidenceId,\n            evidenceGroupID\n        );\n\n        Claim memory claim = claims[disputeID];\n        claim = Claim({\n            planId: _planId,\n            claimedBy: msg.sender,\n            disputeId: disputeID,\n            metaEvidenceId: plan.metaEvidenceId,\n            evidenceGroupId: evidenceGroupID,\n            status: ClaimStatus.Active,\n            result: \"\"\n        });\n        claims[disputeID] = claim;\n\n        claimsCount += 1;\n\n        emit CreateClaim(msg.sender, _planId, disputeID);\n\n        plan.claimsCount += 1;\n        plan.planFunds -= arbitrator.arbitrationCost(\"\");\n        plans[_planId] = plan;\n\n        if (bytes(_evidence).length != 0) {\n            submitEvidence(disputeID, _evidence);\n        }\n    }\n\n    function rule(uint256 _disputeID, uint256 _ruling)\n        external\n        override\n        onlyArbitrator\n    {\n        require(_ruling <= RULING_OPTIONS, \"Ruling out of bounds!\");\n\n        Claim memory claim = claims[_disputeID];\n\n        require(claim.status == ClaimStatus.Active, \"Claim already resolved\");\n\n        if (_ruling == uint256(ClaimResult.initiateReconstruction)) {\n            claim.status = ClaimStatus.Passed;\n            claim.result = \"Initiate reconstruction\";\n        } else if (\n            _ruling == uint256(ClaimResult.doNotInitiateReconstruction)\n        ) {\n            claim.status = ClaimStatus.Failed;\n            claim.result = \"Do not initiate reconstruction\";\n        } else if (_ruling == uint256(ClaimResult.refusedToArbitrate)) {\n            claim.result = \"Refused to arbitrate\";\n        }\n\n        claims[_disputeID] = claim;\n\n        emit Ruling(IArbitrator(msg.sender), _disputeID, _ruling);\n    }\n\n    function depositPlanFunds(uint256 _planId) external payable {\n        require(planExists[_planId], \"Plan does not exist\");\n\n        Plan memory plan = plans[_planId];\n        plan.planFunds += msg.value;\n        plans[_planId] = plan;\n\n        (bool sent, bytes memory data) =\n            address(this).call{value: msg.value}(\"\");\n        require(sent, \"Failed to send Ether\");\n    }\n\n    function recoverPlanFunds(uint256 _planId) external {\n        require(planExists[_planId], \"Plan does not exist\");\n\n        Plan memory plan = plans[_planId];\n\n        require(\n            msg.sender == plan.planCurrentOwner,\n            \"Only plan owner can recover the deposit balance\"\n        );\n        require(plan.planFunds != 0, \"No funds remaining in the plan\");\n\n        uint256 blanceAmount = plan.planFunds;\n\n        plan.planFunds = 0;\n        plans[_planId] = plan;\n\n        address _to = msg.sender;\n\n        (bool sent, bytes memory data) = _to.call{value: blanceAmount}(\"\");\n        require(sent, \"Failed to send Ether\");\n    }\n\n    /* Functions - Public */\n    function submitEvidence(uint256 _disputeID, string calldata _evidence)\n        public\n    {\n        require(_disputeID <= claimsCount, \"Claim or Dispute does not exist\");\n\n        Claim memory claim = claims[_disputeID];\n\n        require(\n            msg.sender == claim.claimedBy,\n            \"Only creator of the claim can submit the evidence\"\n        );\n\n        emit Evidence(arbitrator, claim.evidenceGroupId, msg.sender, _evidence);\n    }\n\n    /* Getters */\n    function getSafexMainContractBalance()\n        public\n        view\n        returns (uint256 balance)\n    {\n        return address(this).balance;\n    }\n\n    function getTotalClaimsAllowed()\n        public\n        view\n        returns (uint256 totalClaimsAllowed)\n    {\n        return _totalClaimsAllowed;\n    }\n}\n",
  "sourcePath": "/home/pavansoratur/GitHub/devpavan04/safex-claims/contracts/SafexMain.sol",
  "compiler": {
    "name": "solc",
    "version": "0.8.3+commit.8d00100c.Emscripten.clang"
  },
  "schemaVersion": "3.3.4",
  "updatedAt": "2021-04-11T19:53:46.912Z",
  "networkType": "ethereum",
  "devdoc": {
    "kind": "dev",
    "methods": {
      "rule(uint256,uint256)": {
        "details": "Give a ruling for a dispute. Must be called by the arbitrator. The purpose of this function is to ensure that the address calling it has the right to rule on the contract.",
        "params": {
          "_disputeID": "ID of the dispute in the Arbitrator contract.",
          "_ruling": "Ruling given by the arbitrator. Note that 0 is reserved for \"Not able/wanting to make a decision\"."
        }
      }
    },
    "version": 1
  },
  "userdoc": {
    "kind": "user",
    "methods": {},
    "version": 1
  }
}