{
  "contractName": "SafexMain",
  "abi": [
    {
      "inputs": [
        {
          "internalType": "contract IArbitrator",
          "name": "_arbitrator",
          "type": "address"
        }
      ],
      "stateMutability": "nonpayable",
      "type": "constructor"
    },
    {
      "anonymous": false,
      "inputs": [
        {
          "indexed": true,
          "internalType": "address",
          "name": "claimCreatedBy",
          "type": "address"
        },
        {
          "indexed": true,
          "internalType": "uint256",
          "name": "planId",
          "type": "uint256"
        },
        {
          "indexed": true,
          "internalType": "uint256",
          "name": "disputeId",
          "type": "uint256"
        }
      ],
      "name": "CreateClaim",
      "type": "event"
    },
    {
      "anonymous": false,
      "inputs": [
        {
          "indexed": true,
          "internalType": "address",
          "name": "planCreatedBy",
          "type": "address"
        },
        {
          "indexed": true,
          "internalType": "address",
          "name": "planInheritor",
          "type": "address"
        },
        {
          "indexed": true,
          "internalType": "uint256",
          "name": "metaEvidenceId",
          "type": "uint256"
        }
      ],
      "name": "CreatePlan",
      "type": "event"
    },
    {
      "anonymous": false,
      "inputs": [
        {
          "indexed": true,
          "internalType": "contract IArbitrator",
          "name": "_arbitrator",
          "type": "address"
        },
        {
          "indexed": true,
          "internalType": "uint256",
          "name": "_disputeID",
          "type": "uint256"
        },
        {
          "indexed": false,
          "internalType": "uint256",
          "name": "_metaEvidenceID",
          "type": "uint256"
        },
        {
          "indexed": false,
          "internalType": "uint256",
          "name": "_evidenceGroupID",
          "type": "uint256"
        }
      ],
      "name": "Dispute",
      "type": "event"
    },
    {
      "anonymous": false,
      "inputs": [
        {
          "indexed": true,
          "internalType": "contract IArbitrator",
          "name": "_arbitrator",
          "type": "address"
        },
        {
          "indexed": true,
          "internalType": "uint256",
          "name": "_evidenceGroupID",
          "type": "uint256"
        },
        {
          "indexed": true,
          "internalType": "address",
          "name": "_party",
          "type": "address"
        },
        {
          "indexed": false,
          "internalType": "string",
          "name": "_evidence",
          "type": "string"
        }
      ],
      "name": "Evidence",
      "type": "event"
    },
    {
      "anonymous": false,
      "inputs": [
        {
          "indexed": true,
          "internalType": "uint256",
          "name": "_metaEvidenceID",
          "type": "uint256"
        },
        {
          "indexed": false,
          "internalType": "string",
          "name": "_evidence",
          "type": "string"
        }
      ],
      "name": "MetaEvidence",
      "type": "event"
    },
    {
      "anonymous": false,
      "inputs": [
        {
          "indexed": true,
          "internalType": "contract IArbitrator",
          "name": "_arbitrator",
          "type": "address"
        },
        {
          "indexed": true,
          "internalType": "uint256",
          "name": "_disputeID",
          "type": "uint256"
        },
        {
          "indexed": false,
          "internalType": "uint256",
          "name": "_ruling",
          "type": "uint256"
        }
      ],
      "name": "Ruling",
      "type": "event"
    },
    {
      "inputs": [],
      "name": "arbitrator",
      "outputs": [
        {
          "internalType": "contract IArbitrator",
          "name": "",
          "type": "address"
        }
      ],
      "stateMutability": "view",
      "type": "function",
      "constant": true
    },
    {
      "inputs": [
        {
          "internalType": "uint256",
          "name": "",
          "type": "uint256"
        }
      ],
      "name": "claims",
      "outputs": [
        {
          "internalType": "uint256",
          "name": "planId",
          "type": "uint256"
        },
        {
          "internalType": "uint256",
          "name": "disputeId",
          "type": "uint256"
        },
        {
          "internalType": "address",
          "name": "claimedBy",
          "type": "address"
        },
        {
          "internalType": "uint256",
          "name": "metaEvidenceId",
          "type": "uint256"
        },
        {
          "internalType": "uint256",
          "name": "evidenceGroupId",
          "type": "uint256"
        },
        {
          "internalType": "enum SafexMain.ClaimStatus",
          "name": "status",
          "type": "uint8"
        },
        {
          "internalType": "string",
          "name": "result",
          "type": "string"
        }
      ],
      "stateMutability": "view",
      "type": "function",
      "constant": true
    },
    {
      "inputs": [],
      "name": "claimsCount",
      "outputs": [
        {
          "internalType": "uint256",
          "name": "",
          "type": "uint256"
        }
      ],
      "stateMutability": "view",
      "type": "function",
      "constant": true
    },
    {
      "inputs": [],
      "name": "evidenceGroupID",
      "outputs": [
        {
          "internalType": "uint256",
          "name": "",
          "type": "uint256"
        }
      ],
      "stateMutability": "view",
      "type": "function",
      "constant": true
    },
    {
      "inputs": [],
      "name": "metaEvidenceID",
      "outputs": [
        {
          "internalType": "uint256",
          "name": "",
          "type": "uint256"
        }
      ],
      "stateMutability": "view",
      "type": "function",
      "constant": true
    },
    {
      "inputs": [
        {
          "internalType": "uint256",
          "name": "",
          "type": "uint256"
        }
      ],
      "name": "plans",
      "outputs": [
        {
          "internalType": "uint256",
          "name": "planId",
          "type": "uint256"
        },
        {
          "internalType": "address",
          "name": "planCreatedBy",
          "type": "address"
        },
        {
          "internalType": "address",
          "name": "planCurrentOwner",
          "type": "address"
        },
        {
          "internalType": "address",
          "name": "planInheritor",
          "type": "address"
        },
        {
          "internalType": "uint256",
          "name": "metaEvidenceId",
          "type": "uint256"
        },
        {
          "internalType": "uint256",
          "name": "claimsCount",
          "type": "uint256"
        },
        {
          "internalType": "uint256",
          "name": "planFunds",
          "type": "uint256"
        }
      ],
      "stateMutability": "view",
      "type": "function",
      "constant": true
    },
    {
      "inputs": [],
      "name": "plansCount",
      "outputs": [
        {
          "internalType": "uint256",
          "name": "",
          "type": "uint256"
        }
      ],
      "stateMutability": "view",
      "type": "function",
      "constant": true
    },
    {
      "inputs": [],
      "name": "safexMainAdmin",
      "outputs": [
        {
          "internalType": "address",
          "name": "",
          "type": "address"
        }
      ],
      "stateMutability": "view",
      "type": "function",
      "constant": true
    },
    {
      "stateMutability": "payable",
      "type": "receive",
      "payable": true
    },
    {
      "inputs": [
        {
          "internalType": "address",
          "name": "_inheritor",
          "type": "address"
        },
        {
          "internalType": "string",
          "name": "_metaEvidence",
          "type": "string"
        }
      ],
      "name": "createPlan",
      "outputs": [],
      "stateMutability": "payable",
      "type": "function",
      "payable": true
    },
    {
      "inputs": [
        {
          "internalType": "uint256",
          "name": "_planId",
          "type": "uint256"
        },
        {
          "internalType": "string",
          "name": "_evidence",
          "type": "string"
        }
      ],
      "name": "createClaim",
      "outputs": [],
      "stateMutability": "payable",
      "type": "function",
      "payable": true
    },
    {
      "inputs": [
        {
          "internalType": "uint256",
          "name": "_disputeID",
          "type": "uint256"
        },
        {
          "internalType": "uint256",
          "name": "_ruling",
          "type": "uint256"
        }
      ],
      "name": "rule",
      "outputs": [],
      "stateMutability": "nonpayable",
      "type": "function"
    },
    {
      "inputs": [
        {
          "internalType": "uint256",
          "name": "_planId",
          "type": "uint256"
        }
      ],
      "name": "depositPlanFunds",
      "outputs": [],
      "stateMutability": "payable",
      "type": "function",
      "payable": true
    },
    {
      "inputs": [
        {
          "internalType": "uint256",
          "name": "_planId",
          "type": "uint256"
        }
      ],
      "name": "recoverPlanFunds",
      "outputs": [],
      "stateMutability": "nonpayable",
      "type": "function"
    },
    {
      "inputs": [
        {
          "internalType": "uint256",
          "name": "_disputeID",
          "type": "uint256"
        },
        {
          "internalType": "string",
          "name": "_evidence",
          "type": "string"
        }
      ],
      "name": "submitEvidence",
      "outputs": [],
      "stateMutability": "nonpayable",
      "type": "function"
    },
    {
      "inputs": [
        {
          "internalType": "uint256",
          "name": "_claimsAllowed",
          "type": "uint256"
        }
      ],
      "name": "setTotalClaimsAllowed",
      "outputs": [],
      "stateMutability": "nonpayable",
      "type": "function"
    },
    {
      "inputs": [],
      "name": "getSafexMainContractBalance",
      "outputs": [
        {
          "internalType": "uint256",
          "name": "balance",
          "type": "uint256"
        }
      ],
      "stateMutability": "view",
      "type": "function",
      "constant": true
    },
    {
      "inputs": [],
      "name": "getTotalClaimsAllowed",
      "outputs": [
        {
          "internalType": "uint256",
          "name": "totalClaimsAllowed",
          "type": "uint256"
        }
      ],
      "stateMutability": "view",
      "type": "function",
      "constant": true
    }
  ],
  "bytecode": "0x6080604052600060025560006003556000600455600060055560026008553480156200002a57600080fd5b5060405162003eeb38038062003eeb8339818101604052810190620000509190620000ef565b806000806101000a81548173ffffffffffffffffffffffffffffffffffffffff021916908373ffffffffffffffffffffffffffffffffffffffff16021790555033600160006101000a81548173ffffffffffffffffffffffffffffffffffffffff021916908373ffffffffffffffffffffffffffffffffffffffff160217905550506200017d565b600081519050620000e98162000163565b92915050565b6000602082840312156200010257600080fd5b60006200011284828501620000d8565b91505092915050565b6000620001288262000143565b9050919050565b60006200013c826200011b565b9050919050565b600073ffffffffffffffffffffffffffffffffffffffff82169050919050565b6200016e816200012f565b81146200017a57600080fd5b50565b613d5e806200018d6000396000f3fe6080604052600436106101025760003560e01c8063a6a7f0eb11610095578063b755424011610064578063b75542401461031e578063bac9dcff1461033a578063bbd245ea14610363578063bcdab1991461038e578063f32f6824146103b957610109565b8063a6a7f0eb14610246578063a888c2cd1461026f578063b1620616146102b2578063b24355b5146102f557610109565b80636cc6cde1116100d15780636cc6cde1146101b85780637999fe1e146101e357806389593471146101ff5780638bf060061461022a57610109565b8063311a6c561461010e578063591c613c146101375780635d561c0814610162578063689a118b1461018d57610109565b3661010957005b600080fd5b34801561011a57600080fd5b5061013560048036038101906101309190612f6a565b6103e4565b005b34801561014357600080fd5b5061014c610a17565b604051610159919061354d565b60405180910390f35b34801561016e57600080fd5b50610177610a1d565b604051610184919061354d565b60405180910390f35b34801561019957600080fd5b506101a2610a23565b6040516101af919061354d565b60405180910390f35b3480156101c457600080fd5b506101cd610a29565b6040516101da91906132ee565b60405180910390f35b6101fd60048036038101906101f89190612f12565b610a4d565b005b34801561020b57600080fd5b5061021461169f565b604051610221919061354d565b60405180910390f35b610244600480360381019061023f9190612e68565b6116a7565b005b34801561025257600080fd5b5061026d60048036038101906102689190612f12565b611d1e565b005b34801561027b57600080fd5b5061029660048036038101906102919190612ec0565b6121e0565b6040516102a9979695949392919061362e565b60405180910390f35b3480156102be57600080fd5b506102d960048036038101906102d49190612ec0565b6122d7565b6040516102ec9796959493929190613568565b60405180910390f35b34801561030157600080fd5b5061031c60048036038101906103179190612ec0565b612379565b005b61033860048036038101906103339190612ec0565b612413565b005b34801561034657600080fd5b50610361600480360381019061035c9190612ec0565b612787565b005b34801561036f57600080fd5b50610378612d06565b604051610385919061354d565b60405180910390f35b34801561039a57600080fd5b506103a3612d0c565b6040516103b0919061354d565b60405180910390f35b3480156103c557600080fd5b506103ce612d16565b6040516103db91906132d3565b60405180910390f35b60008054906101000a900473ffffffffffffffffffffffffffffffffffffffff1673ffffffffffffffffffffffffffffffffffffffff163373ffffffffffffffffffffffffffffffffffffffff1614610472576040517f08c379a00000000000000000000000000000000000000000000000000000000081526004016104699061334d565b60405180910390fd5b8060028111156104b7576040517f08c379a00000000000000000000000000000000000000000000000000000000081526004016104ae9061348d565b60405180910390fd5b6000600760008581526020019081526020016000206040518060e001604052908160008201548152602001600182015481526020016002820160009054906101000a900473ffffffffffffffffffffffffffffffffffffffff1673ffffffffffffffffffffffffffffffffffffffff1673ffffffffffffffffffffffffffffffffffffffff16815260200160038201548152602001600482015481526020016005820160009054906101000a900460ff1660038111156105a0577f4e487b7100000000000000000000000000000000000000000000000000000000600052602160045260246000fd5b60038111156105d8577f4e487b7100000000000000000000000000000000000000000000000000000000600052602160045260246000fd5b81526020016006820180546105ec9061382d565b80601f01602080910402602001604051908101604052809291908181526020018280546106189061382d565b80156106655780601f1061063a57610100808354040283529160200191610665565b820191906000526020600020905b81548152906001019060200180831161064857829003601f168201915b505050505081525050905060018314156107395760018160a0019060038111156106b8577f4e487b7100000000000000000000000000000000000000000000000000000000600052602160045260246000fd5b908160038111156106f2577f4e487b7100000000000000000000000000000000000000000000000000000000600052602160045260246000fd5b815250506040518060400160405280600681526020017f50617373656400000000000000000000000000000000000000000000000000008152508160c001819052506108c9565b60028314156108025760028160a001906003811115610781577f4e487b7100000000000000000000000000000000000000000000000000000000600052602160045260246000fd5b908160038111156107bb577f4e487b7100000000000000000000000000000000000000000000000000000000600052602160045260246000fd5b815250506040518060400160405280600681526020017f4661696c656400000000000000000000000000000000000000000000000000008152508160c001819052506108c8565b60008314156108c75760038160a00190600381111561084a577f4e487b7100000000000000000000000000000000000000000000000000000000600052602160045260246000fd5b90816003811115610884577f4e487b7100000000000000000000000000000000000000000000000000000000600052602160045260246000fd5b815250506040518060400160405280600381526020017f52544100000000000000000000000000000000000000000000000000000000008152508160c001819052505b5b5b8060076000868152602001908152602001600020600082015181600001556020820151816001015560408201518160020160006101000a81548173ffffffffffffffffffffffffffffffffffffffff021916908373ffffffffffffffffffffffffffffffffffffffff160217905550606082015181600301556080820151816004015560a08201518160050160006101000a81548160ff0219169083600381111561099d577f4e487b7100000000000000000000000000000000000000000000000000000000600052602160045260246000fd5b021790555060c08201518160060190805190602001906109be929190612d3c565b50905050833373ffffffffffffffffffffffffffffffffffffffff167f394027a5fa6e098a1191094d1719d6929b9abc535fcc0c8f448d6a4e7562227685604051610a09919061354d565b60405180910390a350505050565b60025481565b60055481565b60045481565b60008054906101000a900473ffffffffffffffffffffffffffffffffffffffff1681565b82600254811115610a93576040517f08c379a0000000000000000000000000000000000000000000000000000000008152600401610a8a9061342d565b60405180910390fd5b8383836000600660008581526020019081526020016000206040518060e0016040529081600082015481526020016001820160009054906101000a900473ffffffffffffffffffffffffffffffffffffffff1673ffffffffffffffffffffffffffffffffffffffff1673ffffffffffffffffffffffffffffffffffffffff1681526020016002820160009054906101000a900473ffffffffffffffffffffffffffffffffffffffff1673ffffffffffffffffffffffffffffffffffffffff1673ffffffffffffffffffffffffffffffffffffffff1681526020016003820160009054906101000a900473ffffffffffffffffffffffffffffffffffffffff1673ffffffffffffffffffffffffffffffffffffffff1673ffffffffffffffffffffffffffffffffffffffff168152602001600482015481526020016005820154815260200160068201548152505090506008548160a0015110610c2a576040517f08c379a0000000000000000000000000000000000000000000000000000000008152600401610c219061336d565b60405180910390fd5b806060015173ffffffffffffffffffffffffffffffffffffffff163373ffffffffffffffffffffffffffffffffffffffff1614610c9c576040517f08c379a0000000000000000000000000000000000000000000000000000000008152600401610c93906134ad565b60405180910390fd5b60008054906101000a900473ffffffffffffffffffffffffffffffffffffffff1673ffffffffffffffffffffffffffffffffffffffff1663f7434ea96040518163ffffffff1660e01b8152600401610cf39061350d565b60206040518083038186803b158015610d0b57600080fd5b505afa158015610d1f573d6000803e3d6000fd5b505050506040513d601f19601f82011682018060405250810190610d439190612ee9565b8160c001511015610d89576040517f08c379a0000000000000000000000000000000000000000000000000000000008152600401610d809061338d565b60405180910390fd5b6000600660008a81526020019081526020016000206040518060e0016040529081600082015481526020016001820160009054906101000a900473ffffffffffffffffffffffffffffffffffffffff1673ffffffffffffffffffffffffffffffffffffffff1673ffffffffffffffffffffffffffffffffffffffff1681526020016002820160009054906101000a900473ffffffffffffffffffffffffffffffffffffffff1673ffffffffffffffffffffffffffffffffffffffff1673ffffffffffffffffffffffffffffffffffffffff1681526020016003820160009054906101000a900473ffffffffffffffffffffffffffffffffffffffff1673ffffffffffffffffffffffffffffffffffffffff1673ffffffffffffffffffffffffffffffffffffffff1681526020016004820154815260200160058201548152602001600682015481525050905060008060009054906101000a900473ffffffffffffffffffffffffffffffffffffffff1673ffffffffffffffffffffffffffffffffffffffff1663c13517e160008054906101000a900473ffffffffffffffffffffffffffffffffffffffff1673ffffffffffffffffffffffffffffffffffffffff1663f7434ea96040518163ffffffff1660e01b8152600401610f6b9061350d565b60206040518083038186803b158015610f8357600080fd5b505afa158015610f97573d6000803e3d6000fd5b505050506040513d601f19601f82011682018060405250810190610fbb9190612ee9565b60026040518363ffffffff1660e01b8152600401610fd991906135d7565b6020604051808303818588803b158015610ff257600080fd5b505af1158015611006573d6000803e3d6000fd5b50505050506040513d601f19601f8201168201806040525081019061102b9190612ee9565b905060016005600082825461104091906136dc565b925050819055508060008054906101000a900473ffffffffffffffffffffffffffffffffffffffff1673ffffffffffffffffffffffffffffffffffffffff167f74baab670a4015ab2f1b467c5252a96141a2573f2908e58a92081e80d3cfde3d84608001516005546040516110b6929190613605565b60405180910390a36000600760008381526020019081526020016000206040518060e001604052908160008201548152602001600182015481526020016002820160009054906101000a900473ffffffffffffffffffffffffffffffffffffffff1673ffffffffffffffffffffffffffffffffffffffff1673ffffffffffffffffffffffffffffffffffffffff16815260200160038201548152602001600482015481526020016005820160009054906101000a900460ff1660038111156111a7577f4e487b7100000000000000000000000000000000000000000000000000000000600052602160045260246000fd5b60038111156111df577f4e487b7100000000000000000000000000000000000000000000000000000000600052602160045260246000fd5b81526020016006820180546111f39061382d565b80601f016020809104026020016040519081016040528092919081815260200182805461121f9061382d565b801561126c5780601f106112415761010080835404028352916020019161126c565b820191906000526020600020905b81548152906001019060200180831161124f57829003601f168201915b50505050508152505090506040518060e001604052808c81526020018381526020013373ffffffffffffffffffffffffffffffffffffffff168152602001846080015181526020016005548152602001600060038111156112f6577f4e487b7100000000000000000000000000000000000000000000000000000000600052602160045260246000fd5b81526020016040518060400160405280600681526020017f416374697665000000000000000000000000000000000000000000000000000081525081525090508060076000848152602001908152602001600020600082015181600001556020820151816001015560408201518160020160006101000a81548173ffffffffffffffffffffffffffffffffffffffff021916908373ffffffffffffffffffffffffffffffffffffffff160217905550606082015181600301556080820151816004015560a08201518160050160006101000a81548160ff0219169083600381111561140a577f4e487b7100000000000000000000000000000000000000000000000000000000600052602160045260246000fd5b021790555060c082015181600601908051906020019061142b929190612d3c565b5090505060016003600082825461144291906136dc565b92505081905550818b3373ffffffffffffffffffffffffffffffffffffffff167f36dcc3cbbf18e5dd24f2edb93e0c12d7ef79b85533dff1a0a20c84a586531d3a60405160405180910390a460018360a0018181516114a191906136dc565b9150818152505060008054906101000a900473ffffffffffffffffffffffffffffffffffffffff1673ffffffffffffffffffffffffffffffffffffffff1663f7434ea96040518163ffffffff1660e01b81526004016114ff9061350d565b60206040518083038186803b15801561151757600080fd5b505afa15801561152b573d6000803e3d6000fd5b505050506040513d601f19601f8201168201806040525081019061154f9190612ee9565b8360c0018181516115609190613732565b9150818152505082600660008d81526020019081526020016000206000820151816000015560208201518160010160006101000a81548173ffffffffffffffffffffffffffffffffffffffff021916908373ffffffffffffffffffffffffffffffffffffffff16021790555060408201518160020160006101000a81548173ffffffffffffffffffffffffffffffffffffffff021916908373ffffffffffffffffffffffffffffffffffffffff16021790555060608201518160030160006101000a81548173ffffffffffffffffffffffffffffffffffffffff021916908373ffffffffffffffffffffffffffffffffffffffff1602179055506080820151816004015560a0820151816005015560c0820151816006015590505060008a8a90501461169257611691828b8b611d1e565b5b5050505050505050505050565b600047905090565b82828260008054906101000a900473ffffffffffffffffffffffffffffffffffffffff1673ffffffffffffffffffffffffffffffffffffffff1663f7434ea96040518163ffffffff1660e01b81526004016117019061350d565b60206040518083038186803b15801561171957600080fd5b505afa15801561172d573d6000803e3d6000fd5b505050506040513d601f19601f820116820180604052508101906117519190612ee9565b341015611793576040517f08c379a000000000000000000000000000000000000000000000000000000000815260040161178a9061346d565b60405180910390fd5b600082829050116117d9576040517f08c379a00000000000000000000000000000000000000000000000000000000081526004016117d0906134cd565b60405180910390fd5b600073ffffffffffffffffffffffffffffffffffffffff168373ffffffffffffffffffffffffffffffffffffffff161415611849576040517f08c379a0000000000000000000000000000000000000000000000000000000008152600401611840906134ed565b60405180910390fd5b8273ffffffffffffffffffffffffffffffffffffffff163373ffffffffffffffffffffffffffffffffffffffff1614156118b8576040517f08c379a00000000000000000000000000000000000000000000000000000000081526004016118af906133ed565b60405180910390fd5b6001600260008282546118cb91906136dc565b925050819055506001600460008282546118e591906136dc565b9250508190555060006006600060025481526020019081526020016000206040518060e0016040529081600082015481526020016001820160009054906101000a900473ffffffffffffffffffffffffffffffffffffffff1673ffffffffffffffffffffffffffffffffffffffff1673ffffffffffffffffffffffffffffffffffffffff1681526020016002820160009054906101000a900473ffffffffffffffffffffffffffffffffffffffff1673ffffffffffffffffffffffffffffffffffffffff1673ffffffffffffffffffffffffffffffffffffffff1681526020016003820160009054906101000a900473ffffffffffffffffffffffffffffffffffffffff1673ffffffffffffffffffffffffffffffffffffffff1673ffffffffffffffffffffffffffffffffffffffff168152602001600482015481526020016005820154815260200160068201548152505090506040518060e0016040528060025481526020013373ffffffffffffffffffffffffffffffffffffffff1681526020013373ffffffffffffffffffffffffffffffffffffffff1681526020018873ffffffffffffffffffffffffffffffffffffffff168152602001600454815260200160008152602001348152509050806006600060025481526020019081526020016000206000820151816000015560208201518160010160006101000a81548173ffffffffffffffffffffffffffffffffffffffff021916908373ffffffffffffffffffffffffffffffffffffffff16021790555060408201518160020160006101000a81548173ffffffffffffffffffffffffffffffffffffffff021916908373ffffffffffffffffffffffffffffffffffffffff16021790555060608201518160030160006101000a81548173ffffffffffffffffffffffffffffffffffffffff021916908373ffffffffffffffffffffffffffffffffffffffff1602179055506080820151816004015560a0820151816005015560c082015181600601559050506000803073ffffffffffffffffffffffffffffffffffffffff1634604051611bf3906132be565b60006040518083038185875af1925050503d8060008114611c30576040519150601f19603f3d011682016040523d82523d6000602084013e611c35565b606091505b509150915081611c7a576040517f08c379a0000000000000000000000000000000000000000000000000000000008152600401611c71906133ad565b60405180910390fd5b6004547f61606860eb6c87306811e2695215385101daab53bd6ab4e9f9049aead9363c7d8989604051611cae929190613309565b60405180910390a26004548973ffffffffffffffffffffffffffffffffffffffff163373ffffffffffffffffffffffffffffffffffffffff167f62e18768a5b083121bc7c2d3d8be246328fa667a7efe4a7934d84b23195305b460405160405180910390a4505050505050505050565b828282600354831115611d66576040517f08c379a0000000000000000000000000000000000000000000000000000000008152600401611d5d9061344d565b60405180910390fd5b6000600760008581526020019081526020016000206040518060e001604052908160008201548152602001600182015481526020016002820160009054906101000a900473ffffffffffffffffffffffffffffffffffffffff1673ffffffffffffffffffffffffffffffffffffffff1673ffffffffffffffffffffffffffffffffffffffff16815260200160038201548152602001600482015481526020016005820160009054906101000a900460ff166003811115611e4f577f4e487b7100000000000000000000000000000000000000000000000000000000600052602160045260246000fd5b6003811115611e87577f4e487b7100000000000000000000000000000000000000000000000000000000600052602160045260246000fd5b8152602001600682018054611e9b9061382d565b80601f0160208091040260200160405190810160405280929190818152602001828054611ec79061382d565b8015611f145780601f10611ee957610100808354040283529160200191611f14565b820191906000526020600020905b815481529060010190602001808311611ef757829003601f168201915b5050505050815250509050806040015173ffffffffffffffffffffffffffffffffffffffff163373ffffffffffffffffffffffffffffffffffffffff1614611f91576040517f08c379a0000000000000000000000000000000000000000000000000000000008152600401611f88906133cd565b60405180910390fd5b6000600760008981526020019081526020016000206040518060e001604052908160008201548152602001600182015481526020016002820160009054906101000a900473ffffffffffffffffffffffffffffffffffffffff1673ffffffffffffffffffffffffffffffffffffffff1673ffffffffffffffffffffffffffffffffffffffff16815260200160038201548152602001600482015481526020016005820160009054906101000a900460ff16600381111561207a577f4e487b7100000000000000000000000000000000000000000000000000000000600052602160045260246000fd5b60038111156120b2577f4e487b7100000000000000000000000000000000000000000000000000000000600052602160045260246000fd5b81526020016006820180546120c69061382d565b80601f01602080910402602001604051908101604052809291908181526020018280546120f29061382d565b801561213f5780601f106121145761010080835404028352916020019161213f565b820191906000526020600020905b81548152906001019060200180831161212257829003601f168201915b50505050508152505090503373ffffffffffffffffffffffffffffffffffffffff16816080015160008054906101000a900473ffffffffffffffffffffffffffffffffffffffff1673ffffffffffffffffffffffffffffffffffffffff167fdccf2f8b2cc26eafcd61905cba744cff4b81d14740725f6376390dc6298a6a3c8a8a6040516121ce929190613309565b60405180910390a45050505050505050565b60076020528060005260406000206000915090508060000154908060010154908060020160009054906101000a900473ffffffffffffffffffffffffffffffffffffffff16908060030154908060040154908060050160009054906101000a900460ff16908060060180546122549061382d565b80601f01602080910402602001604051908101604052809291908181526020018280546122809061382d565b80156122cd5780601f106122a2576101008083540402835291602001916122cd565b820191906000526020600020905b8154815290600101906020018083116122b057829003601f168201915b5050505050905087565b60066020528060005260406000206000915090508060000154908060010160009054906101000a900473ffffffffffffffffffffffffffffffffffffffff16908060020160009054906101000a900473ffffffffffffffffffffffffffffffffffffffff16908060030160009054906101000a900473ffffffffffffffffffffffffffffffffffffffff16908060040154908060050154908060060154905087565b600160009054906101000a900473ffffffffffffffffffffffffffffffffffffffff1673ffffffffffffffffffffffffffffffffffffffff163373ffffffffffffffffffffffffffffffffffffffff1614612409576040517f08c379a00000000000000000000000000000000000000000000000000000000081526004016124009061332d565b60405180910390fd5b8060088190555050565b80600254811115612459576040517f08c379a00000000000000000000000000000000000000000000000000000000081526004016124509061342d565b60405180910390fd5b6000600660008481526020019081526020016000206040518060e0016040529081600082015481526020016001820160009054906101000a900473ffffffffffffffffffffffffffffffffffffffff1673ffffffffffffffffffffffffffffffffffffffff1673ffffffffffffffffffffffffffffffffffffffff1681526020016002820160009054906101000a900473ffffffffffffffffffffffffffffffffffffffff1673ffffffffffffffffffffffffffffffffffffffff1673ffffffffffffffffffffffffffffffffffffffff1681526020016003820160009054906101000a900473ffffffffffffffffffffffffffffffffffffffff1673ffffffffffffffffffffffffffffffffffffffff1673ffffffffffffffffffffffffffffffffffffffff16815260200160048201548152602001600582015481526020016006820154815250509050348160c0018181516125b791906136dc565b9150818152505080600660008581526020019081526020016000206000820151816000015560208201518160010160006101000a81548173ffffffffffffffffffffffffffffffffffffffff021916908373ffffffffffffffffffffffffffffffffffffffff16021790555060408201518160020160006101000a81548173ffffffffffffffffffffffffffffffffffffffff021916908373ffffffffffffffffffffffffffffffffffffffff16021790555060608201518160030160006101000a81548173ffffffffffffffffffffffffffffffffffffffff021916908373ffffffffffffffffffffffffffffffffffffffff1602179055506080820151816004015560a0820151816005015560c082015181600601559050506000803073ffffffffffffffffffffffffffffffffffffffff16346040516126f9906132be565b60006040518083038185875af1925050503d8060008114612736576040519150601f19603f3d011682016040523d82523d6000602084013e61273b565b606091505b509150915081612780576040517f08c379a0000000000000000000000000000000000000000000000000000000008152600401612777906133ad565b60405180910390fd5b5050505050565b806002548111156127cd576040517f08c379a00000000000000000000000000000000000000000000000000000000081526004016127c49061342d565b60405180910390fd5b816000600660008381526020019081526020016000206040518060e0016040529081600082015481526020016001820160009054906101000a900473ffffffffffffffffffffffffffffffffffffffff1673ffffffffffffffffffffffffffffffffffffffff1673ffffffffffffffffffffffffffffffffffffffff1681526020016002820160009054906101000a900473ffffffffffffffffffffffffffffffffffffffff1673ffffffffffffffffffffffffffffffffffffffff1673ffffffffffffffffffffffffffffffffffffffff1681526020016003820160009054906101000a900473ffffffffffffffffffffffffffffffffffffffff1673ffffffffffffffffffffffffffffffffffffffff1673ffffffffffffffffffffffffffffffffffffffff16815260200160048201548152602001600582015481526020016006820154815250509050806040015173ffffffffffffffffffffffffffffffffffffffff163373ffffffffffffffffffffffffffffffffffffffff161461298c576040517f08c379a00000000000000000000000000000000000000000000000000000000081526004016129839061340d565b60405180910390fd5b60008160c0015114156129d4576040517f08c379a00000000000000000000000000000000000000000000000000000000081526004016129cb9061352d565b60405180910390fd5b6000600660008681526020019081526020016000206040518060e0016040529081600082015481526020016001820160009054906101000a900473ffffffffffffffffffffffffffffffffffffffff1673ffffffffffffffffffffffffffffffffffffffff1673ffffffffffffffffffffffffffffffffffffffff1681526020016002820160009054906101000a900473ffffffffffffffffffffffffffffffffffffffff1673ffffffffffffffffffffffffffffffffffffffff1673ffffffffffffffffffffffffffffffffffffffff1681526020016003820160009054906101000a900473ffffffffffffffffffffffffffffffffffffffff1673ffffffffffffffffffffffffffffffffffffffff1673ffffffffffffffffffffffffffffffffffffffff1681526020016004820154815260200160058201548152602001600682015481525050905060008160c00151905060008260c001818152505081600660008881526020019081526020016000206000820151816000015560208201518160010160006101000a81548173ffffffffffffffffffffffffffffffffffffffff021916908373ffffffffffffffffffffffffffffffffffffffff16021790555060408201518160020160006101000a81548173ffffffffffffffffffffffffffffffffffffffff021916908373ffffffffffffffffffffffffffffffffffffffff16021790555060608201518160030160006101000a81548173ffffffffffffffffffffffffffffffffffffffff021916908373ffffffffffffffffffffffffffffffffffffffff1602179055506080820151816004015560a0820151816005015560c0820151816006015590505060003390506000808273ffffffffffffffffffffffffffffffffffffffff1684604051612c74906132be565b60006040518083038185875af1925050503d8060008114612cb1576040519150601f19603f3d011682016040523d82523d6000602084013e612cb6565b606091505b509150915081612cfb576040517f08c379a0000000000000000000000000000000000000000000000000000000008152600401612cf2906133ad565b60405180910390fd5b505050505050505050565b60035481565b6000600854905090565b600160009054906101000a900473ffffffffffffffffffffffffffffffffffffffff1681565b828054612d489061382d565b90600052602060002090601f016020900481019282612d6a5760008555612db1565b82601f10612d8357805160ff1916838001178555612db1565b82800160010185558215612db1579182015b82811115612db0578251825591602001919060010190612d95565b5b509050612dbe9190612dc2565b5090565b5b80821115612ddb576000816000905550600101612dc3565b5090565b600081359050612dee81613cfa565b92915050565b60008083601f840112612e0657600080fd5b8235905067ffffffffffffffff811115612e1f57600080fd5b602083019150836001820283011115612e3757600080fd5b9250929050565b600081359050612e4d81613d11565b92915050565b600081519050612e6281613d11565b92915050565b600080600060408486031215612e7d57600080fd5b6000612e8b86828701612ddf565b935050602084013567ffffffffffffffff811115612ea857600080fd5b612eb486828701612df4565b92509250509250925092565b600060208284031215612ed257600080fd5b6000612ee084828501612e3e565b91505092915050565b600060208284031215612efb57600080fd5b6000612f0984828501612e53565b91505092915050565b600080600060408486031215612f2757600080fd5b6000612f3586828701612e3e565b935050602084013567ffffffffffffffff811115612f5257600080fd5b612f5e86828701612df4565b92509250509250925092565b60008060408385031215612f7d57600080fd5b6000612f8b85828601612e3e565b9250506020612f9c85828601612e3e565b9150509250929050565b612faf81613766565b82525050565b612fbe816137b5565b82525050565b612fcd816137d9565b82525050565b6000612fdf83856136cb565b9350612fec8385846137eb565b612ff5836138ec565b840190509392505050565b600061300b826136a4565b61301581856136cb565b93506130258185602086016137fa565b61302e816138ec565b840191505092915050565b60006130466030836136cb565b9150613051826138fd565b604082019050919050565b60006130696020836136cb565b91506130748261394c565b602082019050919050565b600061308c6036836136cb565b915061309782613975565b604082019050919050565b60006130af6039836136cb565b91506130ba826139c4565b604082019050919050565b60006130d26014836136cb565b91506130dd82613a13565b602082019050919050565b60006130f56031836136cb565b915061310082613a3c565b604082019050919050565b60006131186034836136cb565b915061312382613a8b565b604082019050919050565b600061313b602f836136cb565b915061314682613ada565b604082019050919050565b600061315e6013836136cb565b915061316982613b29565b602082019050919050565b6000613181601f836136cb565b915061318c82613b52565b602082019050919050565b60006131a46016836136cb565b91506131af82613b7b565b602082019050919050565b60006131c76015836136cb565b91506131d282613ba4565b602082019050919050565b60006131ea602f836136cb565b91506131f582613bcd565b604082019050919050565b600061320d602c836136cb565b915061321882613c1c565b604082019050919050565b60006132306028836136cb565b915061323b82613c6b565b604082019050919050565b60006132536000836136af565b915061325e82613cba565b600082019050919050565b60006132766000836136c0565b915061328182613cba565b600082019050919050565b6000613299601e836136cb565b91506132a482613cbd565b602082019050919050565b6132b8816137ab565b82525050565b60006132c982613269565b9150819050919050565b60006020820190506132e86000830184612fa6565b92915050565b60006020820190506133036000830184612fb5565b92915050565b60006020820190508181036000830152613324818486612fd3565b90509392505050565b6000602082019050818103600083015261334681613039565b9050919050565b600060208201905081810360008301526133668161305c565b9050919050565b600060208201905081810360008301526133868161307f565b9050919050565b600060208201905081810360008301526133a6816130a2565b9050919050565b600060208201905081810360008301526133c6816130c5565b9050919050565b600060208201905081810360008301526133e6816130e8565b9050919050565b600060208201905081810360008301526134068161310b565b9050919050565b600060208201905081810360008301526134268161312e565b9050919050565b6000602082019050818103600083015261344681613151565b9050919050565b6000602082019050818103600083015261346681613174565b9050919050565b6000602082019050818103600083015261348681613197565b9050919050565b600060208201905081810360008301526134a6816131ba565b9050919050565b600060208201905081810360008301526134c6816131dd565b9050919050565b600060208201905081810360008301526134e681613200565b9050919050565b6000602082019050818103600083015261350681613223565b9050919050565b6000602082019050818103600083015261352681613246565b9050919050565b600060208201905081810360008301526135468161328c565b9050919050565b600060208201905061356260008301846132af565b92915050565b600060e08201905061357d600083018a6132af565b61358a6020830189612fa6565b6135976040830188612fa6565b6135a46060830187612fa6565b6135b160808301866132af565b6135be60a08301856132af565b6135cb60c08301846132af565b98975050505050505050565b60006040820190506135ec60008301846132af565b81810360208301526135fd81613246565b905092915050565b600060408201905061361a60008301856132af565b61362760208301846132af565b9392505050565b600060e082019050613643600083018a6132af565b61365060208301896132af565b61365d6040830188612fa6565b61366a60608301876132af565b61367760808301866132af565b61368460a0830185612fc4565b81810360c08301526136968184613000565b905098975050505050505050565b600081519050919050565b600082825260208201905092915050565b600081905092915050565b600082825260208201905092915050565b60006136e7826137ab565b91506136f2836137ab565b9250827fffffffffffffffffffffffffffffffffffffffffffffffffffffffffffffffff038211156137275761372661385f565b5b828201905092915050565b600061373d826137ab565b9150613748836137ab565b92508282101561375b5761375a61385f565b5b828203905092915050565b60006137718261378b565b9050919050565b600081905061378682613ce6565b919050565b600073ffffffffffffffffffffffffffffffffffffffff82169050919050565b6000819050919050565b60006137c0826137c7565b9050919050565b60006137d28261378b565b9050919050565b60006137e482613778565b9050919050565b82818337600083830152505050565b60005b838110156138185780820151818401526020810190506137fd565b83811115613827576000848401525b50505050565b6000600282049050600182168061384557607f821691505b60208210811415613859576138586138bd565b5b50919050565b7f4e487b7100000000000000000000000000000000000000000000000000000000600052601160045260246000fd5b7f4e487b7100000000000000000000000000000000000000000000000000000000600052602160045260246000fd5b7f4e487b7100000000000000000000000000000000000000000000000000000000600052602260045260246000fd5b6000601f19601f8301169050919050565b7f4f6e6c792053616665784d61696e20636f6e747261637427732061646d696e2060008201527f63616e2065786563757465207468697300000000000000000000000000000000602082015250565b7f4f6e6c792061726269747261746f722063616e20657865637574652074686973600082015250565b7f546f74616c206e756d626572206f6620636c61696d73206f6e206120706c616e60008201527f20686173207265616368656420746865206c696d697400000000000000000000602082015250565b7f496e73756666696369656e742066756e647320696e2074686520706c616e207460008201527f6f2070617920746865206172626974726174696f6e2066656500000000000000602082015250565b7f4661696c656420746f2073656e64204574686572000000000000000000000000600082015250565b7f4f6e6c792063726561746f72206f662074686520636c61696d2063616e20737560008201527f626d6974207468652065766964656e6365000000000000000000000000000000602082015250565b7f506c616e2063726561746f722073686f756c64206e6f7420626520746865206960008201527f6e68657269746f72206f662074686520706c616e000000000000000000000000602082015250565b7f4f6e6c7920706c616e206f776e65722063616e207265636f766572207468652060008201527f6465706f7369742062616c616e63650000000000000000000000000000000000602082015250565b7f506c616e20646f6573206e6f7420657869737400000000000000000000000000600082015250565b7f436c61696d206f72204469737075746520646f6573206e6f7420657869737400600082015250565b7f496e616465717561746520666565207061796d656e7400000000000000000000600082015250565b7f52756c696e67206f7574206f6620626f756e6473210000000000000000000000600082015250565b7f4f6e6c7920696e68657269746f72206f662074686520706c616e2063616e206360008201527f72656174652074686520636c61696d0000000000000000000000000000000000602082015250565b7f53686f756c642070726f76696465206d65746145766964656e636520746f206360008201527f7265617465206120706c616e0000000000000000000000000000000000000000602082015250565b7f53686f756c642070726f7669646520616e20696e68657269746f7220666f722060008201527f74686520706c616e000000000000000000000000000000000000000000000000602082015250565b50565b7f4e6f2066756e64732072656d61696e696e6720696e2074686520706c616e0000600082015250565b60048110613cf757613cf661388e565b5b50565b613d0381613766565b8114613d0e57600080fd5b50565b613d1a816137ab565b8114613d2557600080fd5b5056fea264697066735822122005abc513271f91115374aee30d624d6100abcf458019c3980397ff53754196e964736f6c63430008030033",
  "immutableReferences": {},
  "source": "// SPDX-License-Identifier: MIT\npragma solidity >=0.7;\n\nimport \"./IArbitrable.sol\";\nimport \"./IArbitrator.sol\";\nimport \"./IEvidence.sol\";\n\ncontract SafexMain is IArbitrable, IEvidence {\n    /* Constants and Immutable */\n    uint256 private constant RULING_OPTIONS = 2;\n\n    /* Enums */\n    enum ClaimStatus {Active, Passed, Failed, Refused}\n\n    /* Structs */\n    struct Plan {\n        uint256 planId;\n        address planCreatedBy;\n        address planCurrentOwner;\n        address planInheritor;\n        uint256 metaEvidenceId;\n        uint256 claimsCount;\n        uint256 planFunds;\n    }\n\n    struct Claim {\n        uint256 planId;\n        uint256 disputeId;\n        address claimedBy;\n        uint256 metaEvidenceId;\n        uint256 evidenceGroupId;\n        ClaimStatus status;\n        string result;\n    }\n\n    /* Storage - Public */\n    IArbitrator public arbitrator;\n\n    address public safexMainAdmin;\n\n    uint256 public plansCount = 0;\n    uint256 public claimsCount = 0;\n    uint256 public metaEvidenceID = 0;\n    uint256 public evidenceGroupID = 0;\n\n    mapping(uint256 => Plan) public plans; // plans[planId] => plan, starts from 1\n    mapping(uint256 => Claim) public claims; // claims[disputeId] => claim, starts from 0 (because, disputeId starts from 0)\n\n    /* Storage - Private */\n    uint256 private _totalClaimsAllowed = 2;\n\n    /* Modifiers */\n    modifier onlySafexMainAdmin {\n        require(\n            msg.sender == safexMainAdmin,\n            \"Only SafexMain contract's admin can execute this\"\n        );\n        _;\n    }\n\n    modifier onlyArbitrator() {\n        require(\n            msg.sender == address(arbitrator),\n            \"Only arbitrator can execute this\"\n        );\n        _;\n    }\n\n    modifier planShouldExist(uint256 _planId) {\n        require(_planId <= plansCount, \"Plan does not exist\");\n        _;\n    }\n\n    modifier shouldBeValidRuling(uint256 _ruling) {\n        require(_ruling <= RULING_OPTIONS, \"Ruling out of bounds!\");\n        _;\n    }\n\n    modifier planCreationRequisite(\n        address _inheritor,\n        string calldata _metaEvidence\n    ) {\n        require(\n            msg.value >= arbitrator.arbitrationCost(\"\"),\n            \"Inadequate fee payment\"\n        );\n        require(\n            bytes(_metaEvidence).length > 0,\n            \"Should provide metaEvidence to create a plan\"\n        );\n        require(\n            _inheritor != address(0),\n            \"Should provide an inheritor for the plan\"\n        );\n        require(\n            msg.sender != _inheritor,\n            \"Plan creator should not be the inheritor of the plan\"\n        );\n        _;\n    }\n\n    modifier claimCreationRequisite(\n        uint256 _planId,\n        string calldata _evidence\n    ) {\n        Plan memory plan = plans[_planId];\n\n        require(\n            plan.claimsCount < _totalClaimsAllowed,\n            \"Total number of claims on a plan has reached the limit\"\n        );\n        require(\n            msg.sender == plan.planInheritor,\n            \"Only inheritor of the plan can create the claim\"\n        );\n        require(\n            plan.planFunds >= arbitrator.arbitrationCost(\"\"),\n            \"Insufficient funds in the plan to pay the arbitration fee\"\n        );\n        _;\n    }\n\n    modifier recoverPlanFundsRequisite(uint256 _planId) {\n        Plan memory plan = plans[_planId];\n\n        require(\n            msg.sender == plan.planCurrentOwner,\n            \"Only plan owner can recover the deposit balance\"\n        );\n        require(plan.planFunds != 0, \"No funds remaining in the plan\");\n        _;\n    }\n\n    modifier submitEvidenceRequisite(\n        uint256 _disputeID,\n        string calldata _evidence\n    ) {\n        require(_disputeID <= claimsCount, \"Claim or Dispute does not exist\");\n\n        Claim memory claim = claims[_disputeID];\n\n        require(\n            msg.sender == claim.claimedBy,\n            \"Only creator of the claim can submit the evidence\"\n        );\n        _;\n    }\n\n    /* Events */\n    event CreatePlan(\n        address indexed planCreatedBy,\n        address indexed planInheritor,\n        uint256 indexed metaEvidenceId\n    );\n\n    event CreateClaim(\n        address indexed claimCreatedBy,\n        uint256 indexed planId,\n        uint256 indexed disputeId\n    );\n\n    /* Constructor */\n    constructor(IArbitrator _arbitrator) {\n        arbitrator = _arbitrator;\n        safexMainAdmin = msg.sender;\n    }\n\n    /* Functions - External */\n    receive() external payable {}\n\n    function createPlan(address _inheritor, string calldata _metaEvidence)\n        external\n        payable\n        planCreationRequisite(_inheritor, _metaEvidence)\n    {\n        plansCount += 1;\n        metaEvidenceID += 1;\n\n        Plan memory plan = plans[plansCount];\n        plan = Plan({\n            planId: plansCount,\n            planCreatedBy: msg.sender,\n            planCurrentOwner: msg.sender,\n            planInheritor: _inheritor,\n            metaEvidenceId: metaEvidenceID,\n            claimsCount: 0,\n            planFunds: msg.value\n        });\n        plans[plansCount] = plan;\n\n        (bool sent, bytes memory data) =\n            address(this).call{value: msg.value}(\"\");\n        require(sent, \"Failed to send Ether\");\n\n        emit MetaEvidence(metaEvidenceID, _metaEvidence);\n        emit CreatePlan(msg.sender, _inheritor, metaEvidenceID);\n    }\n\n    function createClaim(uint256 _planId, string calldata _evidence)\n        external\n        payable\n        planShouldExist(_planId)\n        claimCreationRequisite(_planId, _evidence)\n    {\n        Plan memory plan = plans[_planId];\n\n        uint256 disputeID =\n            arbitrator.createDispute{value: arbitrator.arbitrationCost(\"\")}(\n                RULING_OPTIONS,\n                \"\"\n            );\n\n        evidenceGroupID += 1;\n\n        emit Dispute(\n            arbitrator,\n            disputeID,\n            plan.metaEvidenceId,\n            evidenceGroupID\n        );\n\n        Claim memory claim = claims[disputeID];\n        claim = Claim({\n            planId: _planId,\n            disputeId: disputeID,\n            claimedBy: msg.sender,\n            metaEvidenceId: plan.metaEvidenceId,\n            evidenceGroupId: evidenceGroupID,\n            status: ClaimStatus.Active,\n            result: \"Active\"\n        });\n        claims[disputeID] = claim;\n\n        claimsCount += 1;\n\n        emit CreateClaim(msg.sender, _planId, disputeID);\n\n        plan.claimsCount += 1;\n        plan.planFunds -= arbitrator.arbitrationCost(\"\");\n        plans[_planId] = plan;\n\n        if (bytes(_evidence).length != 0) {\n            submitEvidence(disputeID, _evidence);\n        }\n    }\n\n    function rule(uint256 _disputeID, uint256 _ruling)\n        external\n        override\n        onlyArbitrator\n        shouldBeValidRuling(_ruling)\n    {\n        Claim memory claim = claims[_disputeID];\n\n        if (_ruling == 1) {\n            claim.status = ClaimStatus.Passed; // 1\n            claim.result = \"Passed\";\n        } else if (_ruling == 2) {\n            claim.status = ClaimStatus.Failed; // 2\n            claim.result = \"Failed\";\n        } else if (_ruling == 0) {\n            claim.status = ClaimStatus.Refused; // 3\n            claim.result = \"RTA\"; // Refused To Arbitrate (RTA)\n        }\n\n        claims[_disputeID] = claim;\n\n        emit Ruling(IArbitrator(msg.sender), _disputeID, _ruling);\n    }\n\n    function depositPlanFunds(uint256 _planId)\n        external\n        payable\n        planShouldExist(_planId)\n    {\n        Plan memory plan = plans[_planId];\n        plan.planFunds += msg.value;\n        plans[_planId] = plan;\n\n        (bool sent, bytes memory data) =\n            address(this).call{value: msg.value}(\"\");\n        require(sent, \"Failed to send Ether\");\n    }\n\n    function recoverPlanFunds(uint256 _planId)\n        external\n        planShouldExist(_planId)\n        recoverPlanFundsRequisite(_planId)\n    {\n        Plan memory plan = plans[_planId];\n\n        uint256 blanceAmount = plan.planFunds;\n\n        plan.planFunds = 0;\n        plans[_planId] = plan;\n\n        address _to = msg.sender;\n\n        (bool sent, bytes memory data) = _to.call{value: blanceAmount}(\"\");\n        require(sent, \"Failed to send Ether\");\n    }\n\n    /* Functions - Public */\n    function submitEvidence(uint256 _disputeID, string calldata _evidence)\n        public\n        submitEvidenceRequisite(_disputeID, _evidence)\n    {\n        Claim memory claim = claims[_disputeID];\n\n        emit Evidence(arbitrator, claim.evidenceGroupId, msg.sender, _evidence);\n    }\n\n    /* Setters */\n    function setTotalClaimsAllowed(uint256 _claimsAllowed)\n        public\n        onlySafexMainAdmin\n    {\n        _totalClaimsAllowed = _claimsAllowed;\n    }\n\n    /* Getters */\n    function getSafexMainContractBalance()\n        public\n        view\n        returns (uint256 balance)\n    {\n        return address(this).balance;\n    }\n\n    function getTotalClaimsAllowed()\n        public\n        view\n        returns (uint256 totalClaimsAllowed)\n    {\n        return _totalClaimsAllowed;\n    }\n}\n",
  "sourcePath": "/home/pavansoratur/GitHub/joinsafex/safex-claims/contracts/SafexMain.sol",
  "compiler": {
    "name": "solc",
    "version": "0.8.3+commit.8d00100c.Emscripten.clang"
  },
  "schemaVersion": "3.3.4",
  "updatedAt": "2021-04-19T08:39:51.278Z",
  "networkType": "ethereum",
  "devdoc": {
    "kind": "dev",
    "methods": {
      "rule(uint256,uint256)": {
        "details": "Give a ruling for a dispute. Must be called by the arbitrator. The purpose of this function is to ensure that the address calling it has the right to rule on the contract.",
        "params": {
          "_disputeID": "ID of the dispute in the Arbitrator contract.",
          "_ruling": "Ruling given by the arbitrator. Note that 0 is reserved for \"Not able/wanting to make a decision\"."
        }
      }
    },
    "version": 1
  },
  "userdoc": {
    "kind": "user",
    "methods": {},
    "version": 1
  }
}