{
  "contractName": "SafexMain",
  "abi": [
    {
      "inputs": [
        {
          "internalType": "contract IArbitrator",
          "name": "_arbitrator",
          "type": "address"
        }
      ],
      "stateMutability": "nonpayable",
      "type": "constructor"
    },
    {
      "anonymous": false,
      "inputs": [
        {
          "indexed": true,
          "internalType": "address",
          "name": "planCreatedBy",
          "type": "address"
        },
        {
          "indexed": true,
          "internalType": "address",
          "name": "planInheritor",
          "type": "address"
        },
        {
          "indexed": true,
          "internalType": "uint256",
          "name": "metaEvidenceId",
          "type": "uint256"
        }
      ],
      "name": "CreatePlan",
      "type": "event"
    },
    {
      "anonymous": false,
      "inputs": [
        {
          "indexed": true,
          "internalType": "contract IArbitrator",
          "name": "_arbitrator",
          "type": "address"
        },
        {
          "indexed": true,
          "internalType": "uint256",
          "name": "_disputeID",
          "type": "uint256"
        },
        {
          "indexed": false,
          "internalType": "uint256",
          "name": "_metaEvidenceID",
          "type": "uint256"
        },
        {
          "indexed": false,
          "internalType": "uint256",
          "name": "_evidenceGroupID",
          "type": "uint256"
        }
      ],
      "name": "Dispute",
      "type": "event"
    },
    {
      "anonymous": false,
      "inputs": [
        {
          "indexed": true,
          "internalType": "contract IArbitrator",
          "name": "_arbitrator",
          "type": "address"
        },
        {
          "indexed": true,
          "internalType": "uint256",
          "name": "_evidenceGroupID",
          "type": "uint256"
        },
        {
          "indexed": true,
          "internalType": "address",
          "name": "_party",
          "type": "address"
        },
        {
          "indexed": false,
          "internalType": "string",
          "name": "_evidence",
          "type": "string"
        }
      ],
      "name": "Evidence",
      "type": "event"
    },
    {
      "anonymous": false,
      "inputs": [
        {
          "indexed": true,
          "internalType": "uint256",
          "name": "_metaEvidenceID",
          "type": "uint256"
        },
        {
          "indexed": false,
          "internalType": "string",
          "name": "_evidence",
          "type": "string"
        }
      ],
      "name": "MetaEvidence",
      "type": "event"
    },
    {
      "anonymous": false,
      "inputs": [
        {
          "indexed": true,
          "internalType": "contract IArbitrator",
          "name": "_arbitrator",
          "type": "address"
        },
        {
          "indexed": true,
          "internalType": "uint256",
          "name": "_disputeID",
          "type": "uint256"
        },
        {
          "indexed": false,
          "internalType": "uint256",
          "name": "_ruling",
          "type": "uint256"
        }
      ],
      "name": "Ruling",
      "type": "event"
    },
    {
      "inputs": [],
      "name": "arbitrator",
      "outputs": [
        {
          "internalType": "contract IArbitrator",
          "name": "",
          "type": "address"
        }
      ],
      "stateMutability": "view",
      "type": "function",
      "constant": true
    },
    {
      "inputs": [
        {
          "internalType": "uint256",
          "name": "",
          "type": "uint256"
        }
      ],
      "name": "claims",
      "outputs": [
        {
          "internalType": "address",
          "name": "claimedBy",
          "type": "address"
        },
        {
          "internalType": "uint256",
          "name": "disputeId",
          "type": "uint256"
        },
        {
          "internalType": "uint256",
          "name": "metaEvidenceId",
          "type": "uint256"
        },
        {
          "internalType": "uint256",
          "name": "evidenceGroupId",
          "type": "uint256"
        },
        {
          "internalType": "enum SafexMain.ClaimStatus",
          "name": "status",
          "type": "uint8"
        },
        {
          "internalType": "string",
          "name": "result",
          "type": "string"
        }
      ],
      "stateMutability": "view",
      "type": "function",
      "constant": true
    },
    {
      "inputs": [],
      "name": "claimsCount",
      "outputs": [
        {
          "internalType": "uint256",
          "name": "",
          "type": "uint256"
        }
      ],
      "stateMutability": "view",
      "type": "function",
      "constant": true
    },
    {
      "inputs": [],
      "name": "evidenceGroupID",
      "outputs": [
        {
          "internalType": "uint256",
          "name": "",
          "type": "uint256"
        }
      ],
      "stateMutability": "view",
      "type": "function",
      "constant": true
    },
    {
      "inputs": [
        {
          "internalType": "address",
          "name": "",
          "type": "address"
        }
      ],
      "name": "hasCreatedPlan",
      "outputs": [
        {
          "internalType": "bool",
          "name": "",
          "type": "bool"
        }
      ],
      "stateMutability": "view",
      "type": "function",
      "constant": true
    },
    {
      "inputs": [],
      "name": "metaEvidenceID",
      "outputs": [
        {
          "internalType": "uint256",
          "name": "",
          "type": "uint256"
        }
      ],
      "stateMutability": "view",
      "type": "function",
      "constant": true
    },
    {
      "inputs": [
        {
          "internalType": "uint256",
          "name": "",
          "type": "uint256"
        }
      ],
      "name": "planExists",
      "outputs": [
        {
          "internalType": "bool",
          "name": "",
          "type": "bool"
        }
      ],
      "stateMutability": "view",
      "type": "function",
      "constant": true
    },
    {
      "inputs": [
        {
          "internalType": "uint256",
          "name": "",
          "type": "uint256"
        }
      ],
      "name": "plans",
      "outputs": [
        {
          "internalType": "uint256",
          "name": "planId",
          "type": "uint256"
        },
        {
          "internalType": "address",
          "name": "planCreatedBy",
          "type": "address"
        },
        {
          "internalType": "address",
          "name": "planCurrentOwner",
          "type": "address"
        },
        {
          "internalType": "address",
          "name": "planInheritor",
          "type": "address"
        },
        {
          "internalType": "uint256",
          "name": "metaEvidenceId",
          "type": "uint256"
        },
        {
          "internalType": "uint256",
          "name": "claimsCount",
          "type": "uint256"
        },
        {
          "internalType": "uint256",
          "name": "planFunds",
          "type": "uint256"
        }
      ],
      "stateMutability": "view",
      "type": "function",
      "constant": true
    },
    {
      "inputs": [],
      "name": "plansCount",
      "outputs": [
        {
          "internalType": "uint256",
          "name": "",
          "type": "uint256"
        }
      ],
      "stateMutability": "view",
      "type": "function",
      "constant": true
    },
    {
      "inputs": [],
      "name": "safexMainAdmin",
      "outputs": [
        {
          "internalType": "address",
          "name": "",
          "type": "address"
        }
      ],
      "stateMutability": "view",
      "type": "function",
      "constant": true
    },
    {
      "stateMutability": "payable",
      "type": "receive",
      "payable": true
    },
    {
      "inputs": [
        {
          "internalType": "address",
          "name": "_inheritor",
          "type": "address"
        },
        {
          "internalType": "string",
          "name": "_metaEvidence",
          "type": "string"
        }
      ],
      "name": "createPlan",
      "outputs": [],
      "stateMutability": "payable",
      "type": "function",
      "payable": true
    },
    {
      "inputs": [
        {
          "internalType": "uint256",
          "name": "_planId",
          "type": "uint256"
        },
        {
          "internalType": "string",
          "name": "_evidence",
          "type": "string"
        }
      ],
      "name": "createClaim",
      "outputs": [],
      "stateMutability": "payable",
      "type": "function",
      "payable": true
    },
    {
      "inputs": [
        {
          "internalType": "uint256",
          "name": "_disputeID",
          "type": "uint256"
        },
        {
          "internalType": "uint256",
          "name": "_ruling",
          "type": "uint256"
        }
      ],
      "name": "rule",
      "outputs": [],
      "stateMutability": "nonpayable",
      "type": "function"
    },
    {
      "inputs": [
        {
          "internalType": "uint256",
          "name": "_planId",
          "type": "uint256"
        }
      ],
      "name": "depositPlanFunds",
      "outputs": [],
      "stateMutability": "payable",
      "type": "function",
      "payable": true
    },
    {
      "inputs": [
        {
          "internalType": "uint256",
          "name": "_planId",
          "type": "uint256"
        }
      ],
      "name": "recoverPlanFunds",
      "outputs": [],
      "stateMutability": "nonpayable",
      "type": "function"
    },
    {
      "inputs": [
        {
          "internalType": "uint256",
          "name": "_disputeID",
          "type": "uint256"
        },
        {
          "internalType": "string",
          "name": "_evidence",
          "type": "string"
        }
      ],
      "name": "submitEvidence",
      "outputs": [],
      "stateMutability": "nonpayable",
      "type": "function"
    },
    {
      "inputs": [
        {
          "internalType": "uint256",
          "name": "_newTotalClaimsAllowed",
          "type": "uint256"
        }
      ],
      "name": "setTotalClaimsAllowed",
      "outputs": [],
      "stateMutability": "nonpayable",
      "type": "function"
    },
    {
      "inputs": [],
      "name": "getSafexMainContractBalance",
      "outputs": [
        {
          "internalType": "uint256",
          "name": "balance",
          "type": "uint256"
        }
      ],
      "stateMutability": "view",
      "type": "function",
      "constant": true
    },
    {
      "inputs": [],
      "name": "getTotalClaimsAllowed",
      "outputs": [
        {
          "internalType": "uint256",
          "name": "totalClaimsAllowed",
          "type": "uint256"
        }
      ],
      "stateMutability": "view",
      "type": "function",
      "constant": true
    }
  ],
  "bytecode": "0x608060405233600160006101000a81548173ffffffffffffffffffffffffffffffffffffffff021916908373ffffffffffffffffffffffffffffffffffffffff16021790555060006002556000600355600060045560006005556002600a553480156200006b57600080fd5b5060405162003e3538038062003e358339818101604052810190620000919190620000ef565b806000806101000a81548173ffffffffffffffffffffffffffffffffffffffff021916908373ffffffffffffffffffffffffffffffffffffffff160217905550506200017d565b600081519050620000e98162000163565b92915050565b6000602082840312156200010257600080fd5b60006200011284828501620000d8565b91505092915050565b6000620001288262000143565b9050919050565b60006200013c826200011b565b9050919050565b600073ffffffffffffffffffffffffffffffffffffffff82169050919050565b6200016e816200012f565b81146200017a57600080fd5b50565b613ca8806200018d6000396000f3fe6080604052600436106101185760003560e01c80638bf06006116100a0578063b755424011610064578063b7554240146103ad578063bac9dcff146103c9578063bbd245ea146103f2578063bcdab1991461041d578063f32f6824146104485761011f565b80638bf06006146102ba578063a6a7f0eb146102d6578063a888c2cd146102ff578063b162061614610341578063b24355b5146103845761011f565b80636893e234116100e75780636893e234146101e0578063689a118b1461021d5780636cc6cde1146102485780637999fe1e14610273578063895934711461028f5761011f565b80632e146c0e14610124578063311a6c5614610161578063591c613c1461018a5780635d561c08146101b55761011f565b3661011f57005b600080fd5b34801561013057600080fd5b5061014b60048036038101906101469190612c63565b610473565b60405161015891906131cf565b60405180910390f35b34801561016d57600080fd5b5061018860048036038101906101839190612d8e565b610493565b005b34801561019657600080fd5b5061019f610b91565b6040516101ac9190613489565b60405180910390f35b3480156101c157600080fd5b506101ca610b97565b6040516101d79190613489565b60405180910390f35b3480156101ec57600080fd5b5061020760048036038101906102029190612ce4565b610b9d565b60405161021491906131cf565b60405180910390f35b34801561022957600080fd5b50610232610bbd565b60405161023f9190613489565b60405180910390f35b34801561025457600080fd5b5061025d610bc3565b60405161026a91906131ea565b60405180910390f35b61028d60048036038101906102889190612d36565b610be7565b005b34801561029b57600080fd5b506102a461167a565b6040516102b19190613489565b60405180910390f35b6102d460048036038101906102cf9190612c8c565b611682565b005b3480156102e257600080fd5b506102fd60048036038101906102f89190612d36565b611e06565b005b34801561030b57600080fd5b5061032660048036038101906103219190612ce4565b6120fe565b60405161033896959493929190613167565b60405180910390f35b34801561034d57600080fd5b5061036860048036038101906103639190612ce4565b6121ef565b60405161037b97969594939291906134a4565b60405180910390f35b34801561039057600080fd5b506103ab60048036038101906103a69190612ce4565b612291565b005b6103c760048036038101906103c29190612ce4565b61232b565b005b3480156103d557600080fd5b506103f060048036038101906103eb9190612ce4565b6126b8565b005b3480156103fe57600080fd5b50610407612b01565b6040516104149190613489565b60405180910390f35b34801561042957600080fd5b50610432612b07565b60405161043f9190613489565b60405180910390f35b34801561045457600080fd5b5061045d612b11565b60405161046a919061314c565b60405180910390f35b60096020528060005260406000206000915054906101000a900460ff1681565b60008054906101000a900473ffffffffffffffffffffffffffffffffffffffff1673ffffffffffffffffffffffffffffffffffffffff163373ffffffffffffffffffffffffffffffffffffffff1614610521576040517f08c379a000000000000000000000000000000000000000000000000000000000815260040161051890613249565b60405180910390fd5b6002811115610565576040517f08c379a000000000000000000000000000000000000000000000000000000000815260040161055c906133a9565b60405180910390fd5b6000600760008481526020019081526020016000206040518060c00160405290816000820160009054906101000a900473ffffffffffffffffffffffffffffffffffffffff1673ffffffffffffffffffffffffffffffffffffffff1673ffffffffffffffffffffffffffffffffffffffff1681526020016001820154815260200160028201548152602001600382015481526020016004820160009054906101000a900460ff166002811115610644577f4e487b7100000000000000000000000000000000000000000000000000000000600052602160045260246000fd5b600281111561067c577f4e487b7100000000000000000000000000000000000000000000000000000000600052602160045260246000fd5b8152602001600582018054610690906136ff565b80601f01602080910402602001604051908101604052809291908181526020018280546106bc906136ff565b80156107095780601f106106de57610100808354040283529160200191610709565b820191906000526020600020905b8154815290600101906020018083116106ec57829003601f168201915b50505050508152505090506000600281111561074e577f4e487b7100000000000000000000000000000000000000000000000000000000600052602160045260246000fd5b8160800151600281111561078b577f4e487b7100000000000000000000000000000000000000000000000000000000600052602160045260246000fd5b146107cb576040517f08c379a00000000000000000000000000000000000000000000000000000000081526004016107c290613449565b60405180910390fd5b60016002811115610805577f4e487b7100000000000000000000000000000000000000000000000000000000600052602160045260246000fd5b8214156108cc5760018160800190600281111561084b577f4e487b7100000000000000000000000000000000000000000000000000000000600052602160045260246000fd5b90816002811115610885577f4e487b7100000000000000000000000000000000000000000000000000000000600052602160045260246000fd5b815250506040518060400160405280601781526020017f496e697469617465207265636f6e737472756374696f6e0000000000000000008152508160a00181905250610a4e565b600280811115610905577f4e487b7100000000000000000000000000000000000000000000000000000000600052602160045260246000fd5b8214156109cc5760028160800190600281111561094b577f4e487b7100000000000000000000000000000000000000000000000000000000600052602160045260246000fd5b90816002811115610985577f4e487b7100000000000000000000000000000000000000000000000000000000600052602160045260246000fd5b815250506040518060400160405280601e81526020017f446f206e6f7420696e697469617465207265636f6e737472756374696f6e00008152508160a00181905250610a4d565b60006002811115610a06577f4e487b7100000000000000000000000000000000000000000000000000000000600052602160045260246000fd5b821415610a4c576040518060400160405280601481526020017f5265667573656420746f206172626974726174650000000000000000000000008152508160a001819052505b5b5b806007600085815260200190815260200160002060008201518160000160006101000a81548173ffffffffffffffffffffffffffffffffffffffff021916908373ffffffffffffffffffffffffffffffffffffffff16021790555060208201518160010155604082015181600201556060820151816003015560808201518160040160006101000a81548160ff02191690836002811115610b18577f4e487b7100000000000000000000000000000000000000000000000000000000600052602160045260246000fd5b021790555060a0820151816005019080519060200190610b39929190612b37565b50905050823373ffffffffffffffffffffffffffffffffffffffff167f394027a5fa6e098a1191094d1719d6929b9abc535fcc0c8f448d6a4e7562227684604051610b849190613489565b60405180910390a3505050565b60025481565b60055481565b60086020528060005260406000206000915054906101000a900460ff1681565b60045481565b60008054906101000a900473ffffffffffffffffffffffffffffffffffffffff1681565b6008600084815260200190815260200160002060009054906101000a900460ff16610c47576040517f08c379a0000000000000000000000000000000000000000000000000000000008152600401610c3e90613349565b60405180910390fd5b6000600660008581526020019081526020016000206040518060e0016040529081600082015481526020016001820160009054906101000a900473ffffffffffffffffffffffffffffffffffffffff1673ffffffffffffffffffffffffffffffffffffffff1673ffffffffffffffffffffffffffffffffffffffff1681526020016002820160009054906101000a900473ffffffffffffffffffffffffffffffffffffffff1673ffffffffffffffffffffffffffffffffffffffff1673ffffffffffffffffffffffffffffffffffffffff1681526020016003820160009054906101000a900473ffffffffffffffffffffffffffffffffffffffff1673ffffffffffffffffffffffffffffffffffffffff1673ffffffffffffffffffffffffffffffffffffffff16815260200160048201548152602001600582015481526020016006820154815250509050600a548160a0015110610ddb576040517f08c379a0000000000000000000000000000000000000000000000000000000008152600401610dd290613269565b60405180910390fd5b806060015173ffffffffffffffffffffffffffffffffffffffff163373ffffffffffffffffffffffffffffffffffffffff1614610e4d576040517f08c379a0000000000000000000000000000000000000000000000000000000008152600401610e44906133c9565b60405180910390fd5b60008054906101000a900473ffffffffffffffffffffffffffffffffffffffff1673ffffffffffffffffffffffffffffffffffffffff1663f7434ea96040518163ffffffff1660e01b8152600401610ea490613429565b60206040518083038186803b158015610ebc57600080fd5b505afa158015610ed0573d6000803e3d6000fd5b505050506040513d601f19601f82011682018060405250810190610ef49190612d0d565b8160c001511015610f3a576040517f08c379a0000000000000000000000000000000000000000000000000000000008152600401610f3190613289565b60405180910390fd5b60008060009054906101000a900473ffffffffffffffffffffffffffffffffffffffff1673ffffffffffffffffffffffffffffffffffffffff1663c13517e160008054906101000a900473ffffffffffffffffffffffffffffffffffffffff1673ffffffffffffffffffffffffffffffffffffffff1663f7434ea96040518163ffffffff1660e01b8152600401610fd090613429565b60206040518083038186803b158015610fe857600080fd5b505afa158015610ffc573d6000803e3d6000fd5b505050506040513d601f19601f820116820180604052508101906110209190612d0d565b60026040518363ffffffff1660e01b815260040161103e9190613513565b6020604051808303818588803b15801561105757600080fd5b505af115801561106b573d6000803e3d6000fd5b50505050506040513d601f19601f820116820180604052508101906110909190612d0d565b90506001600560008282546110a591906135a2565b925050819055508060008054906101000a900473ffffffffffffffffffffffffffffffffffffffff1673ffffffffffffffffffffffffffffffffffffffff167f74baab670a4015ab2f1b467c5252a96141a2573f2908e58a92081e80d3cfde3d846080015160055460405161111b929190613541565b60405180910390a36000600760008381526020019081526020016000206040518060c00160405290816000820160009054906101000a900473ffffffffffffffffffffffffffffffffffffffff1673ffffffffffffffffffffffffffffffffffffffff1673ffffffffffffffffffffffffffffffffffffffff1681526020016001820154815260200160028201548152602001600382015481526020016004820160009054906101000a900460ff166002811115611202577f4e487b7100000000000000000000000000000000000000000000000000000000600052602160045260246000fd5b600281111561123a577f4e487b7100000000000000000000000000000000000000000000000000000000600052602160045260246000fd5b815260200160058201805461124e906136ff565b80601f016020809104026020016040519081016040528092919081815260200182805461127a906136ff565b80156112c75780601f1061129c576101008083540402835291602001916112c7565b820191906000526020600020905b8154815290600101906020018083116112aa57829003601f168201915b50505050508152505090506040518060c001604052803373ffffffffffffffffffffffffffffffffffffffff1681526020018381526020018460800151815260200160055481526020016000600281111561134b577f4e487b7100000000000000000000000000000000000000000000000000000000600052602160045260246000fd5b8152602001604051806020016040528060008152508152509050806007600084815260200190815260200160002060008201518160000160006101000a81548173ffffffffffffffffffffffffffffffffffffffff021916908373ffffffffffffffffffffffffffffffffffffffff16021790555060208201518160010155604082015181600201556060820151816003015560808201518160040160006101000a81548160ff0219169083600281111561142f577f4e487b7100000000000000000000000000000000000000000000000000000000600052602160045260246000fd5b021790555060a0820151816005019080519060200190611450929190612b37565b5090505060016003600082825461146791906135a2565b9250508190555060018360a00181815161148191906135a2565b9150818152505060008054906101000a900473ffffffffffffffffffffffffffffffffffffffff1673ffffffffffffffffffffffffffffffffffffffff1663f7434ea96040518163ffffffff1660e01b81526004016114df90613429565b60206040518083038186803b1580156114f757600080fd5b505afa15801561150b573d6000803e3d6000fd5b505050506040513d601f19601f8201168201806040525081019061152f9190612d0d565b8360c00181815161154091906135f8565b9150818152505082600660008881526020019081526020016000206000820151816000015560208201518160010160006101000a81548173ffffffffffffffffffffffffffffffffffffffff021916908373ffffffffffffffffffffffffffffffffffffffff16021790555060408201518160020160006101000a81548173ffffffffffffffffffffffffffffffffffffffff021916908373ffffffffffffffffffffffffffffffffffffffff16021790555060608201518160030160006101000a81548173ffffffffffffffffffffffffffffffffffffffff021916908373ffffffffffffffffffffffffffffffffffffffff1602179055506080820151816004015560a0820151816005015560c082015181600601559050506000858590501461167257611671828686611e06565b5b505050505050565b600047905090565b60008054906101000a900473ffffffffffffffffffffffffffffffffffffffff1673ffffffffffffffffffffffffffffffffffffffff1663f7434ea96040518163ffffffff1660e01b81526004016116d990613429565b60206040518083038186803b1580156116f157600080fd5b505afa158015611705573d6000803e3d6000fd5b505050506040513d601f19601f820116820180604052508101906117299190612d0d565b34101561176b576040517f08c379a000000000000000000000000000000000000000000000000000000000815260040161176290613389565b60405180910390fd5b600960003373ffffffffffffffffffffffffffffffffffffffff1673ffffffffffffffffffffffffffffffffffffffff16815260200190815260200160002060009054906101000a900460ff16156117f8576040517f08c379a00000000000000000000000000000000000000000000000000000000081526004016117ef906132a9565b60405180910390fd5b6000828290501161183e576040517f08c379a0000000000000000000000000000000000000000000000000000000008152600401611835906133e9565b60405180910390fd5b600073ffffffffffffffffffffffffffffffffffffffff168373ffffffffffffffffffffffffffffffffffffffff1614156118ae576040517f08c379a00000000000000000000000000000000000000000000000000000000081526004016118a590613409565b60405180910390fd5b8273ffffffffffffffffffffffffffffffffffffffff163373ffffffffffffffffffffffffffffffffffffffff16141561191d576040517f08c379a000000000000000000000000000000000000000000000000000000000815260040161191490613309565b60405180910390fd5b60016002600082825461193091906135a2565b9250508190555060016004600082825461194a91906135a2565b9250508190555060006006600060025481526020019081526020016000206040518060e0016040529081600082015481526020016001820160009054906101000a900473ffffffffffffffffffffffffffffffffffffffff1673ffffffffffffffffffffffffffffffffffffffff1673ffffffffffffffffffffffffffffffffffffffff1681526020016002820160009054906101000a900473ffffffffffffffffffffffffffffffffffffffff1673ffffffffffffffffffffffffffffffffffffffff1673ffffffffffffffffffffffffffffffffffffffff1681526020016003820160009054906101000a900473ffffffffffffffffffffffffffffffffffffffff1673ffffffffffffffffffffffffffffffffffffffff1673ffffffffffffffffffffffffffffffffffffffff168152602001600482015481526020016005820154815260200160068201548152505090506040518060e0016040528060025481526020013373ffffffffffffffffffffffffffffffffffffffff1681526020013373ffffffffffffffffffffffffffffffffffffffff1681526020018573ffffffffffffffffffffffffffffffffffffffff168152602001600454815260200160008152602001348152509050806006600060025481526020019081526020016000206000820151816000015560208201518160010160006101000a81548173ffffffffffffffffffffffffffffffffffffffff021916908373ffffffffffffffffffffffffffffffffffffffff16021790555060408201518160020160006101000a81548173ffffffffffffffffffffffffffffffffffffffff021916908373ffffffffffffffffffffffffffffffffffffffff16021790555060608201518160030160006101000a81548173ffffffffffffffffffffffffffffffffffffffff021916908373ffffffffffffffffffffffffffffffffffffffff1602179055506080820151816004015560a0820151816005015560c082015181600601559050506000803073ffffffffffffffffffffffffffffffffffffffff1634604051611c5890613137565b60006040518083038185875af1925050503d8060008114611c95576040519150601f19603f3d011682016040523d82523d6000602084013e611c9a565b606091505b509150915081611cdf576040517f08c379a0000000000000000000000000000000000000000000000000000000008152600401611cd6906132c9565b60405180910390fd5b6004547f61606860eb6c87306811e2695215385101daab53bd6ab4e9f9049aead9363c7d8686604051611d13929190613205565b60405180910390a26004548673ffffffffffffffffffffffffffffffffffffffff163373ffffffffffffffffffffffffffffffffffffffff167f62e18768a5b083121bc7c2d3d8be246328fa667a7efe4a7934d84b23195305b460405160405180910390a46001600960003373ffffffffffffffffffffffffffffffffffffffff1673ffffffffffffffffffffffffffffffffffffffff16815260200190815260200160002060006101000a81548160ff021916908315150217905550600160086000600254815260200190815260200160002060006101000a81548160ff021916908315150217905550505050505050565b600354831115611e4b576040517f08c379a0000000000000000000000000000000000000000000000000000000008152600401611e4290613369565b60405180910390fd5b6000600760008581526020019081526020016000206040518060c00160405290816000820160009054906101000a900473ffffffffffffffffffffffffffffffffffffffff1673ffffffffffffffffffffffffffffffffffffffff1673ffffffffffffffffffffffffffffffffffffffff1681526020016001820154815260200160028201548152602001600382015481526020016004820160009054906101000a900460ff166002811115611f2a577f4e487b7100000000000000000000000000000000000000000000000000000000600052602160045260246000fd5b6002811115611f62577f4e487b7100000000000000000000000000000000000000000000000000000000600052602160045260246000fd5b8152602001600582018054611f76906136ff565b80601f0160208091040260200160405190810160405280929190818152602001828054611fa2906136ff565b8015611fef5780601f10611fc457610100808354040283529160200191611fef565b820191906000526020600020905b815481529060010190602001808311611fd257829003601f168201915b5050505050815250509050806000015173ffffffffffffffffffffffffffffffffffffffff163373ffffffffffffffffffffffffffffffffffffffff161461206c576040517f08c379a0000000000000000000000000000000000000000000000000000000008152600401612063906132e9565b60405180910390fd5b3373ffffffffffffffffffffffffffffffffffffffff16816060015160008054906101000a900473ffffffffffffffffffffffffffffffffffffffff1673ffffffffffffffffffffffffffffffffffffffff167fdccf2f8b2cc26eafcd61905cba744cff4b81d14740725f6376390dc6298a6a3c86866040516120f0929190613205565b60405180910390a450505050565b60076020528060005260406000206000915090508060000160009054906101000a900473ffffffffffffffffffffffffffffffffffffffff16908060010154908060020154908060030154908060040160009054906101000a900460ff169080600501805461216c906136ff565b80601f0160208091040260200160405190810160405280929190818152602001828054612198906136ff565b80156121e55780601f106121ba576101008083540402835291602001916121e5565b820191906000526020600020905b8154815290600101906020018083116121c857829003601f168201915b5050505050905086565b60066020528060005260406000206000915090508060000154908060010160009054906101000a900473ffffffffffffffffffffffffffffffffffffffff16908060020160009054906101000a900473ffffffffffffffffffffffffffffffffffffffff16908060030160009054906101000a900473ffffffffffffffffffffffffffffffffffffffff16908060040154908060050154908060060154905087565b600160009054906101000a900473ffffffffffffffffffffffffffffffffffffffff1673ffffffffffffffffffffffffffffffffffffffff163373ffffffffffffffffffffffffffffffffffffffff1614612321576040517f08c379a000000000000000000000000000000000000000000000000000000000815260040161231890613229565b60405180910390fd5b80600a8190555050565b6008600082815260200190815260200160002060009054906101000a900460ff1661238b576040517f08c379a000000000000000000000000000000000000000000000000000000000815260040161238290613349565b60405180910390fd5b6000600660008381526020019081526020016000206040518060e0016040529081600082015481526020016001820160009054906101000a900473ffffffffffffffffffffffffffffffffffffffff1673ffffffffffffffffffffffffffffffffffffffff1673ffffffffffffffffffffffffffffffffffffffff1681526020016002820160009054906101000a900473ffffffffffffffffffffffffffffffffffffffff1673ffffffffffffffffffffffffffffffffffffffff1673ffffffffffffffffffffffffffffffffffffffff1681526020016003820160009054906101000a900473ffffffffffffffffffffffffffffffffffffffff1673ffffffffffffffffffffffffffffffffffffffff1673ffffffffffffffffffffffffffffffffffffffff16815260200160048201548152602001600582015481526020016006820154815250509050348160c0018181516124e991906135a2565b9150818152505080600660008481526020019081526020016000206000820151816000015560208201518160010160006101000a81548173ffffffffffffffffffffffffffffffffffffffff021916908373ffffffffffffffffffffffffffffffffffffffff16021790555060408201518160020160006101000a81548173ffffffffffffffffffffffffffffffffffffffff021916908373ffffffffffffffffffffffffffffffffffffffff16021790555060608201518160030160006101000a81548173ffffffffffffffffffffffffffffffffffffffff021916908373ffffffffffffffffffffffffffffffffffffffff1602179055506080820151816004015560a0820151816005015560c082015181600601559050506000803073ffffffffffffffffffffffffffffffffffffffff163460405161262b90613137565b60006040518083038185875af1925050503d8060008114612668576040519150601f19603f3d011682016040523d82523d6000602084013e61266d565b606091505b5091509150816126b2576040517f08c379a00000000000000000000000000000000000000000000000000000000081526004016126a9906132c9565b60405180910390fd5b50505050565b6008600082815260200190815260200160002060009054906101000a900460ff16612718576040517f08c379a000000000000000000000000000000000000000000000000000000000815260040161270f90613349565b60405180910390fd5b6000600660008381526020019081526020016000206040518060e0016040529081600082015481526020016001820160009054906101000a900473ffffffffffffffffffffffffffffffffffffffff1673ffffffffffffffffffffffffffffffffffffffff1673ffffffffffffffffffffffffffffffffffffffff1681526020016002820160009054906101000a900473ffffffffffffffffffffffffffffffffffffffff1673ffffffffffffffffffffffffffffffffffffffff1673ffffffffffffffffffffffffffffffffffffffff1681526020016003820160009054906101000a900473ffffffffffffffffffffffffffffffffffffffff1673ffffffffffffffffffffffffffffffffffffffff1673ffffffffffffffffffffffffffffffffffffffff16815260200160048201548152602001600582015481526020016006820154815250509050806040015173ffffffffffffffffffffffffffffffffffffffff163373ffffffffffffffffffffffffffffffffffffffff16146128d6576040517f08c379a00000000000000000000000000000000000000000000000000000000081526004016128cd90613329565b60405180910390fd5b60008160c00151141561291e576040517f08c379a000000000000000000000000000000000000000000000000000000000815260040161291590613469565b60405180910390fd5b60008160c00151905060008260c001818152505081600660008581526020019081526020016000206000820151816000015560208201518160010160006101000a81548173ffffffffffffffffffffffffffffffffffffffff021916908373ffffffffffffffffffffffffffffffffffffffff16021790555060408201518160020160006101000a81548173ffffffffffffffffffffffffffffffffffffffff021916908373ffffffffffffffffffffffffffffffffffffffff16021790555060608201518160030160006101000a81548173ffffffffffffffffffffffffffffffffffffffff021916908373ffffffffffffffffffffffffffffffffffffffff1602179055506080820151816004015560a0820151816005015560c0820151816006015590505060003390506000808273ffffffffffffffffffffffffffffffffffffffff1684604051612a7290613137565b60006040518083038185875af1925050503d8060008114612aaf576040519150601f19603f3d011682016040523d82523d6000602084013e612ab4565b606091505b509150915081612af9576040517f08c379a0000000000000000000000000000000000000000000000000000000008152600401612af0906132c9565b60405180910390fd5b505050505050565b60035481565b6000600a54905090565b600160009054906101000a900473ffffffffffffffffffffffffffffffffffffffff1681565b828054612b43906136ff565b90600052602060002090601f016020900481019282612b655760008555612bac565b82601f10612b7e57805160ff1916838001178555612bac565b82800160010185558215612bac579182015b82811115612bab578251825591602001919060010190612b90565b5b509050612bb99190612bbd565b5090565b5b80821115612bd6576000816000905550600101612bbe565b5090565b600081359050612be981613c44565b92915050565b60008083601f840112612c0157600080fd5b8235905067ffffffffffffffff811115612c1a57600080fd5b602083019150836001820283011115612c3257600080fd5b9250929050565b600081359050612c4881613c5b565b92915050565b600081519050612c5d81613c5b565b92915050565b600060208284031215612c7557600080fd5b6000612c8384828501612bda565b91505092915050565b600080600060408486031215612ca157600080fd5b6000612caf86828701612bda565b935050602084013567ffffffffffffffff811115612ccc57600080fd5b612cd886828701612bef565b92509250509250925092565b600060208284031215612cf657600080fd5b6000612d0484828501612c39565b91505092915050565b600060208284031215612d1f57600080fd5b6000612d2d84828501612c4e565b91505092915050565b600080600060408486031215612d4b57600080fd5b6000612d5986828701612c39565b935050602084013567ffffffffffffffff811115612d7657600080fd5b612d8286828701612bef565b92509250509250925092565b60008060408385031215612da157600080fd5b6000612daf85828601612c39565b9250506020612dc085828601612c39565b9150509250929050565b612dd38161362c565b82525050565b612de28161363e565b82525050565b612df181613687565b82525050565b612e00816136ab565b82525050565b6000612e128385613591565b9350612e1f8385846136bd565b612e28836137be565b840190509392505050565b6000612e3e8261356a565b612e488185613591565b9350612e588185602086016136cc565b612e61816137be565b840191505092915050565b6000612e79603083613591565b9150612e84826137cf565b604082019050919050565b6000612e9c602083613591565b9150612ea78261381e565b602082019050919050565b6000612ebf603683613591565b9150612eca82613847565b604082019050919050565b6000612ee2603983613591565b9150612eed82613896565b604082019050919050565b6000612f05602183613591565b9150612f10826138e5565b604082019050919050565b6000612f28601483613591565b9150612f3382613934565b602082019050919050565b6000612f4b603183613591565b9150612f568261395d565b604082019050919050565b6000612f6e603483613591565b9150612f79826139ac565b604082019050919050565b6000612f91602f83613591565b9150612f9c826139fb565b604082019050919050565b6000612fb4601383613591565b9150612fbf82613a4a565b602082019050919050565b6000612fd7601f83613591565b9150612fe282613a73565b602082019050919050565b6000612ffa601683613591565b915061300582613a9c565b602082019050919050565b600061301d601583613591565b915061302882613ac5565b602082019050919050565b6000613040602f83613591565b915061304b82613aee565b604082019050919050565b6000613063602c83613591565b915061306e82613b3d565b604082019050919050565b6000613086602883613591565b915061309182613b8c565b604082019050919050565b60006130a9600083613575565b91506130b482613bdb565b600082019050919050565b60006130cc600083613586565b91506130d782613bdb565b600082019050919050565b60006130ef601683613591565b91506130fa82613bde565b602082019050919050565b6000613112601e83613591565b915061311d82613c07565b602082019050919050565b6131318161367d565b82525050565b6000613142826130bf565b9150819050919050565b60006020820190506131616000830184612dca565b92915050565b600060c08201905061317c6000830189612dca565b6131896020830188613128565b6131966040830187613128565b6131a36060830186613128565b6131b06080830185612df7565b81810360a08301526131c28184612e33565b9050979650505050505050565b60006020820190506131e46000830184612dd9565b92915050565b60006020820190506131ff6000830184612de8565b92915050565b60006020820190508181036000830152613220818486612e06565b90509392505050565b6000602082019050818103600083015261324281612e6c565b9050919050565b6000602082019050818103600083015261326281612e8f565b9050919050565b6000602082019050818103600083015261328281612eb2565b9050919050565b600060208201905081810360008301526132a281612ed5565b9050919050565b600060208201905081810360008301526132c281612ef8565b9050919050565b600060208201905081810360008301526132e281612f1b565b9050919050565b6000602082019050818103600083015261330281612f3e565b9050919050565b6000602082019050818103600083015261332281612f61565b9050919050565b6000602082019050818103600083015261334281612f84565b9050919050565b6000602082019050818103600083015261336281612fa7565b9050919050565b6000602082019050818103600083015261338281612fca565b9050919050565b600060208201905081810360008301526133a281612fed565b9050919050565b600060208201905081810360008301526133c281613010565b9050919050565b600060208201905081810360008301526133e281613033565b9050919050565b6000602082019050818103600083015261340281613056565b9050919050565b6000602082019050818103600083015261342281613079565b9050919050565b600060208201905081810360008301526134428161309c565b9050919050565b60006020820190508181036000830152613462816130e2565b9050919050565b6000602082019050818103600083015261348281613105565b9050919050565b600060208201905061349e6000830184613128565b92915050565b600060e0820190506134b9600083018a613128565b6134c66020830189612dca565b6134d36040830188612dca565b6134e06060830187612dca565b6134ed6080830186613128565b6134fa60a0830185613128565b61350760c0830184613128565b98975050505050505050565b60006040820190506135286000830184613128565b81810360208301526135398161309c565b905092915050565b60006040820190506135566000830185613128565b6135636020830184613128565b9392505050565b600081519050919050565b600082825260208201905092915050565b600081905092915050565b600082825260208201905092915050565b60006135ad8261367d565b91506135b88361367d565b9250827fffffffffffffffffffffffffffffffffffffffffffffffffffffffffffffffff038211156135ed576135ec613731565b5b828201905092915050565b60006136038261367d565b915061360e8361367d565b92508282101561362157613620613731565b5b828203905092915050565b60006136378261365d565b9050919050565b60008115159050919050565b600081905061365882613c30565b919050565b600073ffffffffffffffffffffffffffffffffffffffff82169050919050565b6000819050919050565b600061369282613699565b9050919050565b60006136a48261365d565b9050919050565b60006136b68261364a565b9050919050565b82818337600083830152505050565b60005b838110156136ea5780820151818401526020810190506136cf565b838111156136f9576000848401525b50505050565b6000600282049050600182168061371757607f821691505b6020821081141561372b5761372a61378f565b5b50919050565b7f4e487b7100000000000000000000000000000000000000000000000000000000600052601160045260246000fd5b7f4e487b7100000000000000000000000000000000000000000000000000000000600052602160045260246000fd5b7f4e487b7100000000000000000000000000000000000000000000000000000000600052602260045260246000fd5b6000601f19601f8301169050919050565b7f4f6e6c792053616665784d61696e20636f6e747261637427732061646d696e2060008201527f63616e2065786563757465207468697300000000000000000000000000000000602082015250565b7f4f6e6c792061726269747261746f722063616e20657865637574652074686973600082015250565b7f546f74616c206e756d626572206f6620636c61696d73206f6e206120706c616e60008201527f20686173207265616368656420746865206c696d697400000000000000000000602082015250565b7f496e73756666696369656e742066756e647320696e2074686520706c616e207460008201527f6f2070617920746865206172626974726174696f6e2066656500000000000000602082015250565b7f53656e6465722068617320616c72656164792063726561746564206120706c6160008201527f6e00000000000000000000000000000000000000000000000000000000000000602082015250565b7f4661696c656420746f2073656e64204574686572000000000000000000000000600082015250565b7f4f6e6c792063726561746f72206f662074686520636c61696d2063616e20737560008201527f626d6974207468652065766964656e6365000000000000000000000000000000602082015250565b7f506c616e2063726561746f722073686f756c64206e6f7420626520746865206960008201527f6e68657269746f72206f662074686520706c616e000000000000000000000000602082015250565b7f4f6e6c7920706c616e206f776e65722063616e207265636f766572207468652060008201527f6465706f7369742062616c616e63650000000000000000000000000000000000602082015250565b7f506c616e20646f6573206e6f7420657869737400000000000000000000000000600082015250565b7f436c61696d206f72204469737075746520646f6573206e6f7420657869737400600082015250565b7f496e616465717561746520666565207061796d656e7400000000000000000000600082015250565b7f52756c696e67206f7574206f6620626f756e6473210000000000000000000000600082015250565b7f4f6e6c7920696e68657269746f72206f662074686520706c616e2063616e206360008201527f72656174652074686520636c61696d0000000000000000000000000000000000602082015250565b7f53686f756c642070726f76696465206d65746145766964656e636520746f206360008201527f7265617465206120706c616e0000000000000000000000000000000000000000602082015250565b7f53686f756c642070726f7669646520616e20696e68657269746f7220666f722060008201527f74686520706c616e000000000000000000000000000000000000000000000000602082015250565b50565b7f436c61696d20616c7265616479207265736f6c76656400000000000000000000600082015250565b7f4e6f2066756e64732072656d61696e696e6720696e2074686520706c616e0000600082015250565b60038110613c4157613c40613760565b5b50565b613c4d8161362c565b8114613c5857600080fd5b50565b613c648161367d565b8114613c6f57600080fd5b5056fea26469706673582212201a2512a7c098e3f09081dec21091e9036dbeae57da99dc2e50ad7908c96088ef64736f6c63430008030033",
  "immutableReferences": {},
  "source": "// SPDX-License-Identifier: MIT\npragma solidity >=0.7;\n\nimport \"./IArbitrable.sol\";\nimport \"./IArbitrator.sol\";\nimport \"./IEvidence.sol\";\n\ncontract SafexMain is IArbitrable, IEvidence {\n    /* Constants and Immutable */\n    uint256 private constant RULING_OPTIONS = 2;\n\n    /* Enums */\n    enum ClaimStatus {Active, Passed, Failed}\n\n    enum ClaimResult {\n        refusedToArbitrate,\n        initiateReconstruction,\n        doNotInitiateReconstruction\n    }\n\n    /* Structs */\n    struct Plan {\n        uint256 planId;\n        address planCreatedBy;\n        address planCurrentOwner;\n        address planInheritor;\n        uint256 metaEvidenceId;\n        uint256 claimsCount;\n        uint256 planFunds;\n    }\n\n    struct Claim {\n        address claimedBy;\n        uint256 disputeId;\n        uint256 metaEvidenceId;\n        uint256 evidenceGroupId;\n        ClaimStatus status;\n        string result;\n    }\n\n    /* Storage - Public */\n    IArbitrator public arbitrator;\n\n    address public safexMainAdmin = msg.sender;\n\n    uint256 public plansCount = 0;\n    uint256 public claimsCount = 0;\n    uint256 public metaEvidenceID = 0;\n    uint256 public evidenceGroupID = 0;\n\n    mapping(uint256 => Plan) public plans; // starts from 1\n    mapping(uint256 => Claim) public claims; // starts from 0 (because, disputeId starts from 0)\n    mapping(uint256 => bool) public planExists;\n    mapping(address => bool) public hasCreatedPlan;\n\n    /* Storage - Private */\n    uint256 private _totalClaimsAllowed = 2;\n\n    /* Modifiers */\n    modifier onlySafexMainAdmin {\n        require(\n            msg.sender == safexMainAdmin,\n            \"Only SafexMain contract's admin can execute this\"\n        );\n        _;\n    }\n\n    modifier onlyArbitrator() {\n        require(\n            msg.sender == address(arbitrator),\n            \"Only arbitrator can execute this\"\n        );\n        _;\n    }\n\n    /* Events */\n    event CreatePlan(\n        address indexed planCreatedBy,\n        address indexed planInheritor,\n        uint256 indexed metaEvidenceId\n    );\n\n    /* Constructor */\n    constructor(IArbitrator _arbitrator) {\n        arbitrator = _arbitrator;\n    }\n\n    /* Functions - External */\n    receive() external payable {}\n\n    function createPlan(address _inheritor, string calldata _metaEvidence)\n        external\n        payable\n    {\n        require(\n            msg.value >= arbitrator.arbitrationCost(\"\"),\n            \"Inadequate fee payment\"\n        );\n        require(\n            !hasCreatedPlan[msg.sender],\n            \"Sender has already created a plan\"\n        );\n        require(\n            bytes(_metaEvidence).length > 0,\n            \"Should provide metaEvidence to create a plan\"\n        );\n        require(\n            _inheritor != address(0),\n            \"Should provide an inheritor for the plan\"\n        );\n        require(\n            msg.sender != _inheritor,\n            \"Plan creator should not be the inheritor of the plan\"\n        );\n\n        plansCount += 1;\n        metaEvidenceID += 1;\n\n        Plan memory plan = plans[plansCount];\n        plan = Plan({\n            planId: plansCount,\n            planCreatedBy: msg.sender,\n            planCurrentOwner: msg.sender,\n            planInheritor: _inheritor,\n            metaEvidenceId: metaEvidenceID,\n            claimsCount: 0,\n            planFunds: msg.value\n        });\n        plans[plansCount] = plan;\n\n        (bool sent, bytes memory data) =\n            address(this).call{value: msg.value}(\"\");\n        require(sent, \"Failed to send Ether\");\n\n        emit MetaEvidence(metaEvidenceID, _metaEvidence);\n        emit CreatePlan(msg.sender, _inheritor, metaEvidenceID);\n\n        hasCreatedPlan[msg.sender] = true;\n        planExists[plansCount] = true;\n    }\n\n    function createClaim(uint256 _planId, string calldata _evidence)\n        external\n        payable\n    {\n        require(planExists[_planId], \"Plan does not exist\");\n\n        Plan memory plan = plans[_planId];\n\n        require(\n            plan.claimsCount < _totalClaimsAllowed,\n            \"Total number of claims on a plan has reached the limit\"\n        );\n        require(\n            msg.sender == plan.planInheritor,\n            \"Only inheritor of the plan can create the claim\"\n        );\n        require(\n            plan.planFunds >= arbitrator.arbitrationCost(\"\"),\n            \"Insufficient funds in the plan to pay the arbitration fee\"\n        );\n\n        uint256 disputeID =\n            arbitrator.createDispute{value: arbitrator.arbitrationCost(\"\")}(\n                RULING_OPTIONS,\n                \"\"\n            );\n\n        evidenceGroupID += 1;\n\n        emit Dispute(\n            arbitrator,\n            disputeID,\n            plan.metaEvidenceId,\n            evidenceGroupID\n        );\n\n        Claim memory claim = claims[disputeID];\n        claim = Claim({\n            claimedBy: msg.sender,\n            disputeId: disputeID,\n            metaEvidenceId: plan.metaEvidenceId,\n            evidenceGroupId: evidenceGroupID,\n            status: ClaimStatus.Active,\n            result: \"\"\n        });\n        claims[disputeID] = claim;\n\n        claimsCount += 1;\n\n        plan.claimsCount += 1;\n        plan.planFunds -= arbitrator.arbitrationCost(\"\");\n        plans[_planId] = plan;\n\n        if (bytes(_evidence).length != 0) {\n            submitEvidence(disputeID, _evidence);\n        }\n    }\n\n    function rule(uint256 _disputeID, uint256 _ruling)\n        external\n        override\n        onlyArbitrator\n    {\n        require(_ruling <= RULING_OPTIONS, \"Ruling out of bounds!\");\n\n        Claim memory claim = claims[_disputeID];\n\n        require(claim.status == ClaimStatus.Active, \"Claim already resolved\");\n\n        if (_ruling == uint256(ClaimResult.initiateReconstruction)) {\n            claim.status = ClaimStatus.Passed;\n            claim.result = \"Initiate reconstruction\";\n        } else if (\n            _ruling == uint256(ClaimResult.doNotInitiateReconstruction)\n        ) {\n            claim.status = ClaimStatus.Failed;\n            claim.result = \"Do not initiate reconstruction\";\n        } else if (_ruling == uint256(ClaimResult.refusedToArbitrate)) {\n            claim.result = \"Refused to arbitrate\";\n        }\n\n        claims[_disputeID] = claim;\n\n        emit Ruling(IArbitrator(msg.sender), _disputeID, _ruling);\n    }\n\n    function depositPlanFunds(uint256 _planId) external payable {\n        require(planExists[_planId], \"Plan does not exist\");\n\n        Plan memory plan = plans[_planId];\n        plan.planFunds += msg.value;\n        plans[_planId] = plan;\n\n        (bool sent, bytes memory data) =\n            address(this).call{value: msg.value}(\"\");\n        require(sent, \"Failed to send Ether\");\n    }\n\n    function recoverPlanFunds(uint256 _planId) external {\n        require(planExists[_planId], \"Plan does not exist\");\n\n        Plan memory plan = plans[_planId];\n\n        require(\n            msg.sender == plan.planCurrentOwner,\n            \"Only plan owner can recover the deposit balance\"\n        );\n        require(plan.planFunds != 0, \"No funds remaining in the plan\");\n\n        uint256 blanceAmount = plan.planFunds;\n\n        plan.planFunds = 0;\n        plans[_planId] = plan;\n\n        address _to = msg.sender;\n\n        (bool sent, bytes memory data) = _to.call{value: blanceAmount}(\"\");\n        require(sent, \"Failed to send Ether\");\n    }\n\n    /* Functions - Public */\n    function submitEvidence(uint256 _disputeID, string calldata _evidence)\n        public\n    {\n        require(_disputeID <= claimsCount, \"Claim or Dispute does not exist\");\n\n        Claim memory claim = claims[_disputeID];\n\n        require(\n            msg.sender == claim.claimedBy,\n            \"Only creator of the claim can submit the evidence\"\n        );\n\n        emit Evidence(arbitrator, claim.evidenceGroupId, msg.sender, _evidence);\n    }\n\n    /* Setters */\n    function setTotalClaimsAllowed(uint256 _newTotalClaimsAllowed)\n        external\n        onlySafexMainAdmin\n    {\n        _totalClaimsAllowed = _newTotalClaimsAllowed;\n    }\n\n    /* Getters */\n    function getSafexMainContractBalance()\n        public\n        view\n        returns (uint256 balance)\n    {\n        return address(this).balance;\n    }\n\n    function getTotalClaimsAllowed()\n        public\n        view\n        returns (uint256 totalClaimsAllowed)\n    {\n        return _totalClaimsAllowed;\n    }\n}\n",
  "sourcePath": "/home/pavansoratur/GitHub/devpavan04/safex-claims/contracts/SafexMain.sol",
  "compiler": {
    "name": "solc",
    "version": "0.8.3+commit.8d00100c.Emscripten.clang"
  },
  "schemaVersion": "3.3.4",
  "updatedAt": "2021-04-11T05:10:19.948Z",
  "networkType": "ethereum",
  "devdoc": {
    "kind": "dev",
    "methods": {
      "rule(uint256,uint256)": {
        "details": "Give a ruling for a dispute. Must be called by the arbitrator. The purpose of this function is to ensure that the address calling it has the right to rule on the contract.",
        "params": {
          "_disputeID": "ID of the dispute in the Arbitrator contract.",
          "_ruling": "Ruling given by the arbitrator. Note that 0 is reserved for \"Not able/wanting to make a decision\"."
        }
      }
    },
    "version": 1
  },
  "userdoc": {
    "kind": "user",
    "methods": {},
    "version": 1
  }
}